:020000040800F2
:10000000380800209502000815220008611F00082A
:1000100011220008C11E0008ED26000800000000A3
:100020000000000000000000000000002D22000879
:10003000D11E00080000000017220008AD020008D1
:10004000AF020008AF020008AF020008AF020008CC
:10005000AF020008AF020008AF020008AF020008BC
:10006000AF020008AF020008AF020008AF020008AC
:10007000AF020008AF020008AF020008AF0200089C
:10008000AF020008AF020008AF020008AF0200088C
:10009000AF020008AF020008AF020008AF0200087C
:1000A000AF020008AF020008AF020008AF0200086C
:1000B000AF020008AF020008AF020008AF0200085C
:1000C000AF020008AF020008AF020008AF0200084C
:1000D000AF020008AF020008AF020008AF0200083C
:1000E000AF020008AF020008AF020008AF0200082C
:1000F000AF020008AF020008AF020008AF0200081C
:10010000AF020008AF020008AF020008AF0200080B
:10011000AF020008AF020008AF020008AF020008FB
:10012000AF020008AF020008AF020008AF020008EB
:10013000AF020008AF020008AF020008AF020008DB
:1001400000000000000000000000000000000000AF
:10015000AF020008AF020008AF020008AF020008BB
:10016000AF020008AF020008AF020008AF020008AB
:10017000AF020008AF020008AF020008AF0200089B
:10018000AF02000800F002F800F075F80AA090E84D
:10019000000C82448344AAF10107DA4501D100F042
:1001A0006AF8AFF2090EBAE80F0013F0010F18BF9A
:1001B000FB1A43F00103184748430000684300005E
:1001C0000A444FF0000C10F8013B13F0070408BF7D
:1001D00010F8014B1D1108BF10F8015B641E05D01B
:1001E00010F8016B641E01F8016BF9D113F0080FD0
:1001F0001EBF10F8014BAD1C0C1B09D16D1E58BF62
:1002000001F801CBFAD505E014F8016B01F8016B98
:100210006D1EF9D59142D6D370470000002300240B
:1002200000250026103A28BF78C1FBD8520728BF06
:1002300030C148BF0B607047662904F08F80632986
:1002400000F01B83732900F02083002070471FB546
:1002500004F077F800F070FB04000020002103F0A8
:10026000F7FD401C60600020002103F0DBFDE06032
:100270001FBD10B510BD00F087FC1146FFF7E7FF6A
:1002800002F06AFF00F02AFF03B4FFF7F2FF03BC9D
:1002900001F0A8F90948804709480047FEE7FEE752
:1002A000FEE7FEE7FEE7FEE7FEE7FEE7FEE7FEE726
:1002B00004480549054A064B7047000041230008E1
:1002C000850100083802002038080020380400208A
:1002D000380400200FB41CB5074B06AA7B446946BE
:1002E0000090059800F0A7FA0020694600F0B6FAE1
:1002F0001CBC5DF814FB00007D05000070B50C46C9
:100300000546012A05D02878800600D5EA69002331
:1003100002E0012305E05B1C934202D2E05C00286E
:10032000F9D1A869E618C01AA861286A1844286299
:100330002846AFF3008004E0D5E9012114F8010B51
:100340009047B442F8D32846AFF3008070BD2DE942
:10035000F0410F460546002028622846E968884794
:1003600070B3252805D0D5E901219047286A401CA3
:10037000F2E7E9682846002688476C2804460AD038
:10038000682C08D04C2C35D06A2C31D0742C31D04C
:100390007A2C2FD016E0E968064628468847B042F6
:1003A000044608D16C2E23D04FF480662846E968B5
:1003B0008847044606E06C2E03D04FF4807601E0B7
:1003C0001EE04026E4B1A4F14100192802D82034EF
:1003D00046F400663A46214628462E60FFF72CFF79
:1003E00060B1012808D0FF1D27F007070837B4E7E0
:1003F0008026DBE70026D9E73F1DAEE72046B2E7BF
:10040000286ABDE8F08170477047704770472DE952
:10041000FF4F0C461E464FF0FF378BB0D2E900016C
:10042000DDF860800A908A46C1F30A5505B93D4659
:10043000002108464FF00000BAF1000F00F4400020
:1004400005DA00EB80004FF4400101EA50004FEA6A
:100450009059B9F1010F00DDB9460A9850EA4A00F7
:100460000ED044F61050A5F2FF3545432F14B8F1D5
:10047000000F1ED07542291E1EDDC9F100021CE0CE
:10048000B8F1010F4FF0000001D0302103E0F2433A
:1004900005E02154401CB042FBDB30460022002125
:1004A00021540B99C1F80880C1E900200FB0BDE8C4
:1004B000F08FBD1B6D1CDEE74A4600DA694206A8D4
:1004C00000F0ECFA06AB93E8070003AB83E8070003
:1004D00050460A9901F0AEF88DE80700A0F50050EB
:1004E0001F3800900398002D0ADD42F21F014A4692
:1004F0000844002303A90390684601F059FB09E072
:10050000A0F500504A461F38002303A9039068460F
:1005100001F078FB8DE807000004000C03D04FF0D9
:10052000FF30410800E01046B8F1000F03D0002270
:10053000009215461EE0751E05D400F001FA303217
:1005400062556D1EF9D5B3460122084302D0002240
:100550007F1C04E02078302801D100227F1E002A71
:10056000099784D01DE0112D07DA00F0E9F9303247
:1005700062556D1C50EA0102F5D1084302D0009883
:10058000C8B10EE00021681E05E0235C625C635484
:100590002254401E491C8142F7DBAB46A81B401E7B
:1005A0000990002004F80B000B98099AC0F8088005
:1005B000C0E9002B7AE711264FF0000857E72DE934
:1005C000F04F88460446D21D22F0070191B0D1E9D0
:1005D0000001CDE90A0102F0D1F802460B98C00FE4
:1005E00001D02D2007E02068810701D52B2002E0F3
:1005F000202101EAC000032A099001D0072A05DB67
:1006000003464146204600F0E9F90BE120788006D8
:1006100001D5E06900E00620B8F1650F814606D0FB
:10062000B8F1660F18D0B8F1670F70D131E0002033
:10063000B9F1110F009001DB112301E009F1010371
:100640000AAA01A90CA8FFF7E2FEDDE90C7000265A
:1006500009F10105834647E001204B4600904FF029
:1006600000470AAA01A90CA8FFF7D1FEDDE90DB0E9
:100670000C995D46002610B909F101000D18B9EB7F
:10068000050003D4C0F1FF3609F10105A5EB09000F
:100690002BE0B9F1010F01DA4FF001090020B9F1A7
:1006A000110F0090484601DD112300E003460AAA1D
:1006B00001A90CA8FFF7ABFEDDE90C704D46002642
:1006C0008346207800070AD4AB4500DA5D4601A8CE
:1006D000012D04DD411911F8011C302907D04F45C7
:1006E00002DA17F1040F04DA012082460FE06D1ED2
:1006F000EEE7002F02DCED1B3E4403E0781CA8422D
:1007000000DD7D1CB81B00F1010A4FF00047207886
:10071000000703D4AA4501DB4FF0FF3A0021B7F1EF
:10072000004F0DF143088DF8431024D002202B23F5
:10073000002F01DA7F422D230A21021EA0F10100C1
:1007400000DC5FB197FBF1FC97FBF1F201FB1C7C35
:1007500017460CF1300C08F801CDEEE7A8F10100C6
:1007600003702188090501D5452100E06521A0F12C
:10077000010800F8011C09980FA9A1EB0807FF1D4B
:1007800000B10120411901EBEA70A1693844081A4F
:10079000401EA0612078C00602D42046AFF300803E
:1007A000099828B1D4E901219047206A401C2062B1
:1007B0002078C00622D52046AFF300801EE0002E30
:1007C00004DBB34502DD01A8805D00E03020D4E900
:1007D00001219047206A401C2062761CAAF101008A
:1007E0005FEA000A0AD100F0A7F8C0680168405C1F
:1007F000D4E901219047206A401C2062281EA5F1FF
:100800000105DCDC07E0D4E9012118F8010B904771
:10081000206A401C2062381EA7F10107F3DC204645
:10082000AFF30080032011B041E6000001694A1CCB
:1008300002610878704700B58FB0CDE90131002121
:10084000059105497944CDE9031011466846FFF743
:100850007EFD0FB000BD0000E5FFFFFF0A6802F853
:10086000010B0A60704710B5436913B1AFF3008004
:1008700001E0FFF743FD012010BD127800F12401D3
:100880000A7000224A700122EDE711684FF0FF3232
:10089000E9E700000FB4002300B589B00CA900916E
:1008A0000B99CB60214B7B440693214B7B440793F0
:1008B00004236FF00042CDE901321E4A7A446B46B0
:1008C00008920246002003F0ABFD09B05DF814FB6E
:1008D00070B506464FF0FF3015460C46324686B0DE
:1008E0000091CDE9010169460020049004A8FFF7BA
:1008F000D1FF02460498211825B108B1084600E04E
:1009000020462860049800280DD0002A02DD0098B7
:10091000884208D03246081B69460094CDE901049C
:1009200004A8FFF7B7FF06B070BD0000B3010000D8
:10093000CB0100000B01000000487047F8010020C7
:1009400030B5B0F10A024FEA900E71F100034EEAA1
:10095000817EB0EB0E0061EB91014FEA101E4EEA72
:10096000017E10EB0E0041EB11114FEA102E4EEA02
:10097000016E10EB0E0041EB11214FEA104E4EEAD2
:10098000014E10EB0E0041EB1141401841F1000106
:100990004FEAD00040EA41704FEAD10110EB8005E8
:1009A0004FEA810444EA907444EB01046D1944EB6E
:1009B0000404521BA3414FF0000348BF0A3200D584
:1009C00030BD401C41F1000130BD10B5044600F0BF
:1009D00001F90068005D00F0010010BD2DE9F04153
:1009E0001F46044603260168072A01F4006004DB61
:1009F00008B116A505E016A503E008B115A500E0AD
:100A000015A521F010002060A069C01EA0610FB1E3
:100A1000401EA0612046AFF300804FB1D4E9012110
:100A200038469047206A401C2062C01C206206E0C5
:100A3000206AFAE7D4E9012115F8010B9047761EE8
:100A4000F8D22046AFF30080BDE8F0814E414E0061
:100A50006E616E00494E4600696E6600426842B1A2
:100A6000016811F8013B23B1521EC0E9001218467B
:100A700070470121C160881E704742685AB1C3683F
:100A8000016843B983688B4205D0491E521CC0E9F6
:100A90000012002070474FF0FF3070472DE9F047FB
:100AA000814616468AB0354878440DC88DE80D0059
:100AB00032487844801C03AC0DC884E80D0041F630
:100AC0009B300844372190FBF1F290FBF1F5A5F142
:100AD000800501FB12041B3C02D56442012000E0AA
:100AE0000020DFF898A080460027FA44AAF1BE0A49
:100AF0000EE0E0070AD03246684607EB47010123C3
:100B00000AEB810101F07EF88DE8070064107F1C7C
:100B1000002CEED1194F7F44AE3F19E0E80715D005
:100B200007EB04100DF1180A90E80E008AE80E0099
:100B3000C068F04201D1981908903246012306A9F5
:100B400003A801F05FF803AB83E807006D10641C95
:100B5000002DE3D14FF0010332466946B8F1000F92
:100B600003A802D001F024F801E001F04BF8C9E934
:100B70000001C9F808200AB0BDE8F0873C3A00003F
:100B800000487047D80100207546FFF7F9FFAE46D0
:100B900005006946534620F00700854618B020B589
:100BA000FFF786FBBDE820404FF000064FF000073E
:100BB0004FF000084FF0000B21F00701AC46ACE805
:100BC000C009ACE8C009ACE8C009ACE8C0098D4672
:100BD0007047000010B5FFF7AFFE001D10BD00BF4D
:100BE000713200002DE9FF4F06468BB00878FF28D0
:100BF00006D0491C2D2805D000244FF0000908E03C
:100C000000200CE00124F8E709EB8903491C00EB04
:100C100043090878FF28F7D114B1C9F100008146D3
:100C2000107800252C46AA4629462D2801D02B28CD
:100C300004D1521C2D2813D0002082468B461078F8
:100C4000FF280FD04FF0000C0A21521CA5FB0178A1
:100C500004FB018105FB0C11C5194BEB0104EEE708
:100C60000120EAE7002108464FF00000BAF1000F2A
:100C700002D000EB80004008C0F38157012F01DD56
:100C80004FF0FF370E9955EA040009EB01080BD02D
:100C90004FF0020918F5FA7F16DA4FEACA70002FF2
:100CA000706008DD012007E04FEACA70C6E900B0B5
:100CB0000FB0BDE8F08F0020306000F059FAC0F8A6
:100CC00000901821084616E0B8F5FA7F18DD002FCD
:100CD00002DAF748784401E0F6487844D0E9001099
:100CE000C6E9001040EACA70706000F041FAC0F82E
:100CF0000090142108460FB0BDE8F04F03F02BBB65
:100D0000002108464FF00000B8F10001099002DA16
:100D1000C7F1000200E03A4601DAC8F1000106A876
:100D2000FFF7BCFE06AB93E8070003AB83E80700C0
:100D300044F23E005BEA04010090584604D144F2BC
:100D40001E012C465D460091210C0904014306D189
:100D50000099240444EA15442D041039009104F04C
:100D60007F41014306D10099240244EA15642D0213
:100D70000839009104F07041014306D10099240123
:100D800044EA15742D01091F009104F0404101430C
:100D900006D10099A40044EA9574AD00891E009123
:100DA00004F00041084304D100986D196441401ECD
:100DB00000904FF001033A466846B8F1000FCDE9C4
:100DC000014503A902DD00F032FF01E000F005FF5C
:100DD000BAF1000F04460D4601D084F00044002112
:100DE00008464FF00000099940F2FF77484010F0A4
:100DF0000C0F07D124F00040284303D0C4F30A505D
:100E0000B84212D100F0B4F9C0F80090C4F30A500F
:100E1000B8420AD1A8487844D0E90010C6E90010C9
:100E200004F000410843706042E7C6E900543FE720
:100E30002DE9FF4F1F464FF0000A4FF0FF3845469F
:100E400091B0D7E90146CDF83CA0FFF775FDC06829
:100E50000168405C1090B96912986D1C8847396A26
:100E6000814688470028F6D1B9F1FF3F0AD0002E0D
:100E700024F4D06411DDB9F12B0F08D0B9F12D0F96
:100E80000BD102E0404615B013E744F48064B96921
:100E900012986D1C8847761E8146600504A901D50D
:100EA0002D2000E02B20002E01F1010B0DF1300868
:100EB0008DF810003FDDB9F1690F08D0B9F1490F85
:100EC00005D0B9F16E0F02D0B9F14E0F1CD13B46DF
:100ED00001A8009580E85002DDE912126FF00200CF
:100EE00003F0A2FAC11CCED10EE0B96912986D1CB4
:100EF000884781461398761E44F4007405600F9865
:100F0000401C002E0F9016DDB9F1300FEDD0B9F175
:100F1000780F02D0B9F1580F0DD10F9801280AD1DE
:100F20003B46CDE90054DDE91212001F029603F0A2
:100F300079FAC11CA7D1109989453ED144F08004AB
:100F400006E01399681CAAF1010A44F400740860D1
:100F5000B9696D1C1298761E884730288146F0D0FA
:100F60002BE01099894505D1200603D4761E44F064
:100F7000800418E0484601F046FD08B3761E0DF1E6
:100F800023018B4544F4007408D2A9F130000BF81A
:100F9000010B200607D5AAF1010003E0200602D4C8
:100FA0000AF101008246A00502D51399681C086069
:100FB000B96912986D1C88478146002ED1DC53E038
:100FC000002E51DDB9F1650F02D0B9F1450F4BD1BB
:100FD000A00549D5B9696D1C1298761E24F4407499
:100FE0008847002E81460CDD2B2804D0B9F12D0F47
:100FF00007D144F48074B96912986D1C8847761E35
:101000008146E00501D52D2100E02B2108F8011BC8
:10101000CDF8008021E0761E0DF13901884544F4B9
:1010200000740CD2A9F1300010F0FF0088F8000025
:1010300002D10099884509D908F1010806E0E005C8
:1010400001D51E4801E042F20F708246B96912983C
:101050006D1C8847814613980560002E04DD4846C4
:1010600001F0D1FC0028D6D1F96912988847FF20F9
:1010700053468BF8000088F8000000200A900B907F
:1010800004AA0CA90AA8FFF7ADFDA00502D46FF0D1
:101090000100F8E614F0240F12D0E0071CD13868E4
:1010A000DDE90A12031D3B600068C0E9001213E08D
:1010B000503800004238000006370000F1D8FFFF2A
:1010C0000AA9684601F08CFCE00705D13868009A4F
:1010D000011D3960006802602846D4E610B5044658
:1010E000AFF300802046BDE81040FFF7CDB8000008
:1010F0004FF0013C50F8042B51F8043B9A4221D1A7
:10110000A2EB0C03934313EACC1317D150F8042B32
:1011100051F8043B9A4215D1A2EB0C03934313EA16
:10112000CC130BD150F8042B51F8043B9A4209D14F
:10113000A2EB0C03934313EACC13DBD04FF0000077
:10114000704700BFD01A01BAB1FA81F101F018015D
:1011500022FA01F0CB40C1F12001DBB2C0B2C01ACB
:101160002CFA01F3D11A914311EAC311E6D1704769
:1011700000487047D801002010B5FFF7F9FF00685C
:1011800010BD10B50446FFF7F3FF046010BD00006A
:101190002DE9FF4F1F464FF03C0987B04FF000424A
:1011A000DDE9141001F10108DDF858A002EA405011
:1011B0000390002005908346054604460490B969D3
:1011C000461E08988847AAF1010A0290BAF1000F5A
:1011D0003BDD02982E2815D0102100F01CFA0028C3
:1011E0002EDB4FF0010B0599014317D0B9F1000F29
:1011F0000BDB4A46C11700F0FBF905430C43A9F18C
:10120000040905E0012004900BE008B145F0010558
:1012100001200590049820B9361D02E0049800B121
:10122000361FB969089808F101088847BBF1000F1B
:10123000AAF1010A0290C9D00999C1F80080C5E756
:101240000298702808D0502806D0F9690898884775
:10125000BBF1000F14D04FE0002002900120BBF141
:10126000000F049009D0B969089808F1010888476F
:10127000AAF10109B9F1000F07DCF969089888475C
:101280006FF001000BB0BDE8F08F2B2804D02D28A3
:101290000CD14FF0FF300490B969089808F10108AB
:1012A0008847A9F10109B9F1000FE6DD411CE4D03E
:1012B0000A2100F0B0F90028DFDB029908F10108EB
:1012C00001EB810100EB41000290B9690898884761
:1012D0000A2100F0A0F9099AA9F10109B9F1000F5A
:1012E000C2F8008001DD0028E7DAF969089888472C
:1012F0000499029800FB016655EA040004D004F04A
:101300004041090002D006E0039898E0A40044EAB6
:101310009574AD00B61E04F00041080002D16D19AD
:101320006441761E159810F0240F03D04FF00B097E
:101330005C4803E04FF028096FF07D008246564577
:1013400007DAAAEB06018944B9F1410F01DD4FF03C
:10135000410901200021A9F1010200F049F90246EA
:1013600028400B462140084301D0012100E0002124
:10137000501E029143F1FF3128402140084301D023
:10138000012000E000200299834651EA0B014FD072
:10139000002108464FF00000039900F4400039B1E5
:1013A00000EB80004FF4400100EBD07001EA6000D8
:1013B0008015012802DD4FF0FF3000E013D0401C03
:1013C00036D0029860B3BBF1000F0CD14A46012021
:1013D000002100F00DF928402140084301D00120F0
:1013E00000E00020E0B101204A46002100F000F9B1
:1013F000034640190A4661412D1A8C4111D3B9F1B7
:10140000400F09DD159810F0240F02D0AAF1340620
:1014100003E0AAF1170600E0761C00254FF0004417
:1014200006E05B1E42F1FF3220EA030521EA0204D6
:10143000CAF10100B04206DA1B4903980843019043
:10144000002000900EE0039AC4F3D321E80A0A4377
:10145000164940EA44500A433146CDE90002684645
:1014600001F0C7FA159810F0240F0BD01598C0079B
:1014700015D13868DDE90012031D3B600068C0E942
:1014800000120CE002A8694601F0AAFA1598C007FC
:1014900005D13868029A011D396000680260404633
:1014A000F0E6000002FCFFFF0000F07F0000F03FCC
:1014B0002DE9FF4F92461D4685B04FF00041DDE912
:1014C000124BDDE914727F1E01EA4B50414940F096
:1014D000FF4940EA0108002122F020004928049138
:1014E00002D04E2828D04CE03BA0012607C88DE84A
:1014F0000700A9690698641C88477F1E014606D428
:101500001DF8060018B121F0200181420BD0E969D5
:1015100006988847032E34D0082E32D06FF0010091
:1015200009B0BDE8F08F761C032E01D0082EE0D163
:10153000601CCAF80000DCE7A9690698641C8847AB
:101540007F1E2AD420F02000412826D1A9690698C0
:10155000641C88477F1E20D420F020004E281CD118
:10156000A9690698641C88477F1E48F4002849F43E
:101570008009CAF8004001D4282806D0E9690698F5
:1015800088475FEACB7012D022E0A9690698641CF4
:1015900088477F1E01D4002803DAE9690698884746
:1015A000BCE72928F1D1641CCAF80040E9E71BF028
:1015B000240F07D028680499031D2B600068C0E938
:1015C000001805E02868021D2A600068C0F8009035
:1015D0002046A5E70000F07F494E46494E49545940
:1015E0000000000001491820ABBEFEE72600020003
:1015F000B2F120030AD5C2F1200301FA02F120FA68
:1016000003F300FA02F041EA0301704700FA03F124
:101610004FF0000070473A2800D2303820F0200206
:10162000412A01D3A2F13700884201D34FF0FF30A5
:10163000704770475FEA400C08BF91F0000F4FEA17
:101640008C234FEAC12243EA51514FEA1C5018BF84
:1016500000F5F0404FEA300018BF41F000415FEA6A
:101660006C5C00F02980BCF1FF3F08BF40F0804077
:101670007047130C06BF12044FF0100C4FF0000C13
:10168000130E04BF12020CF1080C130F04BF120159
:101690000CF1040C930F04BF92000CF1020CD30F59
:1016A00004BF52000CF1010C11464FF00002A0F1F2
:1016B0001F00A0EB0C00704711F0004F08BF7047EF
:1016C00031F000413FF4D5AF0B0C06BF09044FF0D9
:1016D000100C4FF0000C0B0E04BF09020CF1080CAB
:1016E0000B0F04BF09010CF1040C8B0F04BF890020
:1016F0000CF1020CCB0F04BF49000CF1010CCCF132
:101700002003A0EB0C0022FA03F302FA0CF241EAE8
:10171000030100F10100704720F07F4C80EA0300D4
:1017200023F07F47ACEB070303F57C5300F0004048
:1017300003F1FF032DE980494FEA154B09B44FEA45
:10174000144325EA0B4E24EA03480FF2042606EB65
:10175000132749083E785FEA320203FB0667C7F5A4
:10176000000707FB06F64FEA54374FEAD64606F164
:10177000020607FB066CCCF1005C4FEA1C472CEA22
:10178000074C07FB06F40CFB06F504EB15464FEA85
:10179000961634BF00204FF000404FEAD13706FBC9
:1017A00007FC4FEA1C4C0CFB0BF7D21B03FB0CF79E
:1017B00061EB07010CFB0EF7B0EB074072EB174231
:1017C0000CFB08F734BFA2EB0742B2EB074261EB18
:1017D00017414FEA0C444FEA910706FB07FC4FEA1A
:1017E0001C4C0CFB0BF7B0EBC74072EB573203FB02
:1017F0000CF734BFA2EBC742B2EBC74261EB5731E3
:101800000CFB0EF7B0EBC70072EB57720CFB08F73E
:1018100034BFA2EBC702B2EBC70261EB5771039F63
:101820004FEA816141EA921104EBCC044FEAD137CF
:101830004FEA826206FB07FC42EA90124FEA8060A0
:101840004FEA1C4C0CFB0BF7D21B03FB0CF761EBB4
:1018500007010CFB0EF7B0EB074072EB17420CFBD5
:1018600008F734BFA2EB0742B2EB074261EB174126
:101870004FEA8C554FEA910704EB9C2406FB07FCCA
:101880004FEA1C4C0CFB0BF7B0EBC74072EB573226
:1018900003FB0CF734BFA2EBC742B2EBC74261EBCC
:1018A00057310CFB0EF7B0EBC70072EB57720CFB15
:1018B00008F734BFA2EBC702B2EBC70261EB577166
:1018C00015EB4C254FEA816141EA92114FEA8262A1
:1018D0004FEAD13742EA901206FB07FC44F10004BC
:1018E0004FEA80604FEA1C4C0CFB0BF7D21B03FB4A
:1018F0000CF761EB07010CFB0EF7B0EB074072EB46
:1019000017420CFB08F734BFA2EB0742B2EB0742C9
:1019100061EB174115EB1C154FEA813141EA924109
:101920004FEA823242EA90424FEA80304FEA0C7628
:1019300044F1000448EA03434EEA0B484FF0000E1E
:10194000B2EB080C71EB030724BF624639464EEB3D
:101950000E0E4FF0000B0018524149414BEB0B0BA0
:10196000B2EB080C71EB03077BF1000B24BF62465E
:1019700039464EEB0E0E4FF0000B00185241494114
:101980004BEB0B0BB2EB080C71EB03077BF1000B7D
:1019900024BF624639464EEB0E0E51EA020718BFCD
:1019A00046F0010616EB0E7655F1000254F10001E7
:1019B00003D5BDE88901BDE80088BDE88901BDE81F
:1019C0000048B619524141EB0101A3F101037047F0
:1019D00080807F7E7D7C7B7A79787776767574736C
:1019E000727171706F6E6E6D6C6C6B6A6A6968682B
:1019F000676666656464636362616160605F5F5EC1
:101A00005E5D5D5C5C5B5B5A5A5959585857575636
:101A1000565555555454535352525251515050509B
:101A20004F4F4F4E4E4D4D4D4C4C4C4B4B4B4A4AED
:101A30004A49494948484847474747464646454531
:101A4000454444444443434343424242424141416A
:101A500046EA0646A3F570534FEA164646EA425652
:101A60004FEAD22242EA415210B54FEAD121A3F106
:101A7000010300F02FF820F0004000F1020C00F00C
:101A8000004701EB00501146BCF5006F40EA07002B
:101A900000D210BDBAF1000F0AD01CB503B44FF04C
:101AA00004004FF004014FF000000FBCBDE81040EF
:101AB0004FF00001BBF1010FB9BF04484FF0FF31F7
:101AC0000348002140EA070010BD00BFFFFFEF7F81
:101AD0000000F07F002B9C4630D477002BD01CB543
:101AE0004FEA370703B44FF010004FF01001BAF17E
:101AF000000F06D0BCF1000FDCBF40F0080040F042
:101B000008014FF000000FBCBDE810400BF1010BC5
:101B1000BBF1010F08BF5FEA170722BF12F10102F4
:101B200011F101014FF0004143F1000300F00040CA
:101B300043EA00007047F9D35708D0E746EA064663
:101B400013F1400F4FEA16461FDD13F1200FDFBFE0
:101B500016430A46002120335B42BED0C3F1200762
:101B600046EA064602FA07F74FEA164646EA07062D
:101B7000C3F1200722FA03F201FA07F721FA03F171
:101B80004FF0000342EA0702A7E746EA020646EAE8
:101B900006464FEA164646EA0106BCBF46EA064636
:101BA000360C4FF000034FF000024FF0000194E7B5
:101BB0002DE9804C9A46934670B491E8380007C8E6
:101BC00031EA400C48BF34EA430C03D5FFF7A4FDCB
:101BD000FFF780FFF0BCBDE8008C2DE9804C9A46F1
:101BE000934670B491E8380007C831EA400C48BF0A
:101BF00034EA430C03D5FFF78FFDFFF729FFF0BC54
:101C0000BDE8008C2DE9804C9A46934670B491E86B
:101C1000380007C810F0804F08BF13F0804F03D181
:101C200000F01AF8FFF756FFF0BCBDE8008C2DE974
:101C3000804C9A46934670B491E8380007C810F07B
:101C4000804F08BF13F0804F03D100F005F8FFF775
:101C5000FFFEF0BCBDE8008C20F07F4780EA030067
:101C600023F07F4C07EB0C03A3F57C5300F00040FE
:101C7000A3F1FE0392F0000F00F0B38095F0000F87
:101C800000F077802DE901494FEA11404FEA1446F0
:101C900021EA004800FB06FC24EA064708FB06F69A
:101CA00007FB08F800FB07F718EB06484CEB164C4F
:101CB0004FEA124B18EB07484FEA15464CEB17401A
:101CC00022EA0B4E0BFB06FC25EA06470EFB06F646
:101CD00007FB0EFE0BFB07F71EEB064E4CEB164CFC
:101CE0004FF000061EEB074E4CEB174B18EB0B08A2
:101CF00040F1000018EB0E0B58EB000840F100001B
:101D00008F1A4FF000013CBFC943661B14BFB5EBEF
:101D1000040C00213CBFC943F61B4FEA17444EEAAE
:101D20008E0E27EA04454FEA1C4704FB07622CEAA3
:101D3000074C05FB07F70CFB05F604FB0CFC16EB48
:101D4000074642EB174216EB0C4642EB1C421BEBDC
:101D5000060658EB0202414146EA9E0601D5BDE85F
:101D60000189B619524141EB0101A3F10103BDE81C
:101D700001894FEA14454FEA114724EA054621EA52
:101D8000074C05FB07F406FB07F70CFB06F105FB08
:101D90000CFC11EB074144EB17444FEA124711EBDF
:101DA0000C4144EB1C4422EA074C05FB07F206FBFE
:101DB00007F70CFB06F605FB0CFC16EB074642EB9F
:101DC000174216EB0C4642EB1C456A1854F1000111
:101DD00048BF7047B619524141EB0101A3F101031D
:101DE000704795F0000F37D04FEA11424FEA144781
:101DF00021EA024624EA074C02FB07F106FB07F73B
:101E00000CFB06F402FB0CFC14EB074441EB1741FE
:101E10004FEA154714EB0C4441EB1C4125EA074CF3
:101E200002FB07F506FB07F70CFB06F602FB0CFCB2
:101E300016EB074645EB174516EB0C4645EB1C42E7
:101E4000121951F1000148BF7047B619524141EBD8
:101E50000101A3F1010370474FEA14454FEA11470E
:101E600024EA054621EA074C05FB07F106FB07F7C4
:101E70000CFB06F24FF0000605FB0CFC12EB0742D0
:101E800041EB174112EB0C4251EB1C4148BF70472C
:101E9000921841EB0101A3F10103704710B5074807
:101EA000006840F01E00054908600A2000F012F8A2
:101EB0000248001F006800F0E00010BD0C1801404F
:101EC00000BFFEE700200149087070479400002021
:101ED0007047000010B504460021054801F065FE7A
:101EE00000BF034801F05EFEA042FAD310BD00001F
:101EF00000140040002114E00C4810F811000C4AB6
:101F0000128890420BD1094800EB41004078094A01
:101F100010800120084A1070084A10707047481C51
:101F2000C1B20C29E8DB0020F8E700009600002091
:101F300090000020920000209400002095000020D6
:101F40000548007828B1002003490870034800784C
:101F500070470020FCE70000950000209200002060
:101F600000BFFEE7094800684FF6E17108400749E5
:101F70000860002006490870064908800649088064
:101F80000649087006490870704700000C180140A7
:101F90008E0000209000002092000020940000207D
:101FA0009500002010B5012000F004F80220FFF792
:101FB00091FF10BD10B504461021104801F03AF809
:101FC00000F06CFE201100F0EBF808210B4801F046
:101FD00033F800F063FE0821084801F02BF8204692
:101FE00000F0DEF80821054801F026F800F056FE62
:101FF0000821024801F01EF810BD00000014014045
:1020000010B504461021104801F016F800F046FE05
:10201000201100F0C5F808210B4801F00DF800F080
:102020003DFE0821084801F005F8204600F0B8F808
:102030000821054801F000F800F030FE08210248B0
:1020400000F0F8FF10BD00000014014010B528207A
:10205000FFF740FF10212A4800F0ECFF00F01EFEC1
:10206000032000F09DF80821254800F0E5FF00F06E
:1020700015FE0821224800F0DDFF0120FFF72AFFAE
:10208000032000F08DF808211D4800F0D5FF00F076
:1020900005FE08211A4800F0CDFF0120FFF71AFFC6
:1020A000032000F07DF80821154800F0C5FF00F07E
:1020B000F5FD0821124800F0BDFF0120FFF70AFFDF
:1020C0002820FFF777FF0220FFF704FF0F20FFF71C
:1020D00071FF0220FFF7FEFE0120FFF76BFF0220D9
:1020E000FFF7F8FE0620FFF765FF0220FFF7F2FE7C
:1020F0000220FFF75FFF0220FFF7ECFE10BD00009B
:102100000014014010B5044624B12046FFF778FFC3
:1021100000F0C4FD10BD70B504460D4615B1012D8B
:1021200013D107E044F08000FFF744FF0120FFF7E0
:10213000D1FE0AE004F14001C9B241F08000FFF78E
:1021400039FF0120FFF7C6FE00BF00BF70BD0000D1
:102150002DE9F041044600250026012719E001275A
:1021600000260EE0605D0D4911F81610884206D178
:102170000A4901EB46014878FFF7C4FF0027701CAD
:10218000C6B2762EEEDB17B1605DFFF7BBFF681CB1
:10219000C5B2605D0028E2D1BDE8F081AE0000204C
:1021A00010B50446C4F3C00028B14FF4807117483D
:1021B00000F042FF04E04FF48071144800F03AFF51
:1021C000C4F3800020B18021104800F035FF03E007
:1021D00080210E4800F02EFFC4F3400020B14021C2
:1021E0000A4800F029FF03E04021084800F022FFE0
:1021F00004F0010020B12021044800F01DFF03E09D
:102200002021024800F016FF10BD0000001401401C
:1022100000BFFEE77047704790ED000A024981ED6C
:10222000000A91ED000A7047580000207047000036
:1022300010B50C4800684FF6E17108400A4909786A
:1022400001F01E010843074908600A20FFF742FE1B
:102250000448001F006804490978084000F0E000C5
:1022600010BD00000C1801409000002010B50224A1
:1022700023E0144800684FF6E171084020431149FB
:1022800008600A20FFF726FE0E48001F006800F0D5
:10229000E00070B10B48001F006800F0E0000A4940
:1022A00008800848006800F01E00098808430649B5
:1022B00008804FF6FF7000EA440404F01E00002876
:1022C000D7D110BD0C1801409000002010B51B485C
:1022D000007830B101280DD0022818D003282AD167
:1022E0001CE0FFF7DBFD20B1FFF7C0FF0120134921
:1022F000087021E0FFF79CFF28B1FFF7FBFD0220EB
:102300000E49087002E000200C49087014E0FFF745
:102310008FFF10B90320094908700DE0FFF788FF0F
:1023200018B102200549087004E0FFF7CBFD00203A
:102330000249087000E000BF00BF10BD8E00002001
:102340001848006840F47000164908601648006894
:1023500020F00100401C1449086000BF12480068CA
:10236000C0F340000028F9D00F48406820F0030077
:102370000D49486000BF0C484068C0F38100002848
:10238000F9D1094800680949084007490860002058
:10239000486008634FF41F008860C8030149803912
:1023A0000860704788ED00E000100240FFFFF2FE79
:1023B000C3480068C0F34001C24880F82310C048F9
:1023C0000068C0F38001BF4880F82210BC48006854
:1023D000C0F3C001BB4880F82110B9480068C0F3C1
:1023E0000010B84981F82000B5480068C0F34011DA
:1023F000B448C177B2480068C0F38011B148817712
:10240000AF480068C0F3C011AE484177AC480068DF
:10241000C0F30020AB490877A9480068C0F3402109
:10242000A848C176A6480068C0F38021A5488176F7
:10243000A3480068C0F3C021A2484176A0480068C4
:10244000C0F300309F4908769D480068C0F34031D2
:102450009C48C1759A480068C0F3803199488175DD
:1024600097480068C0F3C031964841759648806827
:1024700000F001009349087593488068C0F340015B
:102480009048C17490488068C0F380018D48817481
:102490008D488068C0F3C0018A4841748A488068CA
:1024A000C0F300108749087487488068C0F3401162
:1024B0008448C17384488068C0F380118148817367
:1024C00081488068C0F3C0117E4841737E488068AF
:1024D000C0F300207B4908737B488068C0F340202C
:1024E000087279488068C0F3802008717648806857
:1024F000C0F3C0217348417173488068C0F3003154
:102500007048817170488068C0F340316D48C17176
:102510006D488068C0F3C0306A4908706B48006835
:1025200000F00100487069480068C0F340008870FE
:1025300066480068C0F38000C8709FED650A654872
:1025400080ED000A00206449087064490860082092
:102550006349086079E00020624908605FE06048F4
:102560000068032815DB57485D49096800EB8100C6
:102570005C490968405C5B490978884000EE100AB4
:10258000B8EEC00A5348D0ED000A30EE200A80EDC4
:10259000000A53480068022815D14A485049096882
:1025A00000EB81004F490968405C4E49097888403A
:1025B00000EE100AB8EEC00A4648D0ED000A30EE30
:1025C000200A80ED000A4648006801280FD13D48E6
:1025D0004349096800EB810042490968405C414970
:1025E000097888403C49097808443B4908703C48D0
:1025F000006878B933483A49096800EB81003949E5
:102600000968405C374909788840344909680844BA
:102610003249086033480068401C3249086031483C
:10262000006803289BDD2E480068032808DB294842
:1026300090ED000AF2EE040A80EE201A80ED001AF6
:1026400027480068401E2649086025480068002881
:1026500081DA0020234908601FE0234821490968E6
:1026600010F811001C490978884211D11E481D49F3
:10267000096800EB4100407800EE100AB8EE400A0D
:102680001448D0ED000A20EE200A80ED000A08E090
:1026900014480068401C1349086012480068042868
:1026A000DBDD00BF0D4800680B2808D1094890ED1C
:1026B000000AFFEE000A20EE200A80ED000A7047B3
:1026C000080C0140B4010020001001400814014032
:1026D00000000000780000208C000020880000200E
:1026E00084000020800000206C00002000BFFEE776
:1026F00070B52DED028BB0EE408A04460325002014
:10270000154981ED008A486000F0E2FB204600F0A8
:1027100037FB0546032D0BD10F480168204600F01A
:10272000E7FB054600F01CFB0A20FFF7D3FB0FE098
:1027300000F016FB0BE0FFF735FC08A0FFF708FDE3
:1027400001210020FFF7E7FC08A0FFF701FDF2E7F9
:10275000BDEC028B70BD000038000020CEF8E8E12F
:10276000EAE020E7E0EFE8F1E8000000E4E0EDED6A
:10277000FBF520E220EFE0ECFFF2FC0003B401984F
:102780004100009850EAC12018BF04204A0D18BF2C
:1027900040F0010040F2FF72B2EB515F08BF40F021
:1027A0000200012808BF052002B0704700000000A9
:1027B00030B52DED048B81B0B0EE408AF0EE608A2A
:1027C0006A4651EC180B00F0EFFB00989FED329B2E
:1027D0007E300090002821DC53EC192B51EC180BB3
:1027E00001F092FB1AD0002140F608004FF00000E3
:1027F000044651EC180B01F041FB08EE100A40F6BC
:10280000080004EA00014FF00000B5EEC08AF1EEC6
:1028100010FA04BF0220FEF7B4FC2DE00098FF2858
:1028200030DB002108464FF0000000F4400553EC77
:10283000192B51EC180B01F0DDFC8CBF0024012496
:102840000220FEF79EFC9FED168A4DB1002C0CBFB6
:102850004FF400004FF48000A84218BF9FED118A8A
:10286000042108464FF00000002C01BFB1EE480AD9
:1028700001B0BDEC048B30BDB0EE480A01B0BDEC38
:10288000048B30BD51EC180B01F0F8FA01B000EEEA
:10289000100ABDEC048B30BD0000000000000000F9
:1028A0000000807FFFFF7F7F30B540F2FF742DED89
:1028B000048BF0EE608A18EE901A85B0B0EE408A74
:1028C0009FED2B9B05468DED008B34EA115147D0CF
:1028D00053EC192B51EC180B01F016FB40D02A4693
:1028E00051EC180B01F06EFD41EC180B18EE900A3C
:1028F0008DED008B34EA10501CD053EC192B51ECA9
:10290000180B01F001FB2BD10220FEF73AFC00F07E
:1029100057F810EE901A18EE900A8DED020B8DED1F
:10292000008B61F31E0003909DED020B05B0BDEC22
:10293000048B30BD0220FEF724FC00F031F810EECD
:10294000901A18EE900A8DED020B8DED008B61F35D
:102950001E0003909DED020B05B0BDEC048B30BD55
:1029600005B0B0EE480AF0EE680ABDEC048B30BD4D
:10297000000000000000000000B583B09FED060BD2
:102980000A4601468DED000B6846FDF7A1FF9DED5F
:10299000000B03B000BD00000000000000000000BC
:1029A0009FED050B10B553EC102B51EC100B01F003
:1029B00023FB41EC100B10BD000000000000007074
:1029C0009FED050B10B553EC102B51EC100B01F0E3
:1029D00013FB41EC100B10BD0000000000000010C4
:1029E00010B5044691ED000BFFF7E2FE84ED000AFE
:1029F00010BD10B5044690ED000B0846FFF754FFDC
:102A000084ED000B10BD30380A2801D20120704738
:102A1000002070470349496860F30711014A51607B
:102A200070470000001002400349496860F30A2122
:102A3000014A516070470000001002400349496894
:102A400060F3CD21014A5160704700000010024040
:102A5000012807D10749496D21F030013031054A7D
:102A6000516505E00349496D21F03001014A516586
:102A70007047000000100240052827D2DFE800F070
:102A8000030A11181F00134A126861F30002114B68
:102A90001A601CE00F4A126861F310420D4B1A6075
:102AA00015E00C4A126861F318620A4B1A600EE0D6
:102AB000084A126A61F30002064B1A6207E0054AEF
:102AC000526A61F30002034B5A6200E000BF00BF8C
:102AD000704700000010024010B501460020094B6D
:102AE00003EB1142126801F01F040123A3401A40B6
:102AF00001F01F040123A3409A4200D000E001200E
:102B000010BD00000010024030B50024002500E098
:102B1000641C1120FFF7E0FF012802D0B4F5405FEC
:102B2000F6D31120FFF7D8FF012801D0002500E0DF
:102B30000125284630BD000010B501290DD10E4BEE
:102B400003EB1042126800F01F040123A3401A4354
:102B5000094C04EB10431A600CE0074B03EB1042E6
:102B6000126800F01F040123A3409A43024C04EBB7
:102B700010431A6010BD00000010024010B568B983
:102B80001C4B5B6823F480331A4C636023461B6B39
:102B900023F0007303F10073236317E0154B5B68A8
:102BA00023F4803303F58033124C6360012805D190
:102BB00023465B6823F40033636007E00D4B5B68DA
:102BC00023F4003303F500330A4C6360094B5B6860
:102BD00061F39543074C63600C09064B5B6864F333
:102BE0005E73044C636023465B6862F3DF7363606B
:102BF00010BD0000001002401348006820F00100E2
:102C0000401C1149086000BF0F480068C0F3400035
:102C10000028F9D00C48406820F003000A494860B9
:102C200000BF09484068C0F381000028F9D1064878
:102C300000680649084004490860002048600863AD
:102C40004FF41F008860704700100240FFFFF2FE43
:102C50000D49496860F301010B4A516000BF00BF94
:102C600000BF00BF00BF00BF00BF00BF00BF00BF6C
:102C700000BF00BF00BF00BF00BF00BF00BF00BF5C
:102C800000BF00BF704700000010024002484068CB
:102C9000C0F381007047000000100240002000BF18
:102CA00001E0411C88B2B0F57A7FFADB7047000082
:102CB00003200B49C96801F0010109B100200EE0B1
:102CC0000749C968C1F3800109B1012007E004493F
:102CD000C968C1F3001109B1022000E00320704768
:102CE0000020024000B502460323FFF7E1FF034640
:102CF00003E0FFF7DDFF0346521E0BB9002AF8D1AF
:102D000002B90423184600BD03200B49C96C01F029
:102D1000010109B100200EE00749C96CC1F380012F
:102D200009B1012007E00449C96CC1F3001109B1E0
:102D3000022000E0032070470020024000B5024658
:102D40000323FFF7E1FF034603E0FFF7DDFF034640
:102D5000521E0BB9002AF8D102B90423184600BD4F
:102D60000648006920F08000803004490861084668
:102D7000006D20F080008030086570470020024020
:102D800030B504460325B4F1006F1BD332488442AA
:102D900018D83248006920F00200801C2F490861D1
:102DA00008464461006920F0400040300861480452
:102DB000FFF798FF05462948006920F002002749DF
:102DC000086146E02448401C84421BD3B4F1016FE3
:102DD00018D22248006D20F00200801C1F490865AF
:102DE00008464465006D20F0400040300865480406
:102DF000FFF7A4FF05461948006D20F002001749AF
:102E0000086526E0B4F1046F23D3144890300068BD
:102E100020F00200801C1149C1F890000846C0F85B
:102E200094400E489030006820F0400040300B493C
:102E3000903108604FF0FF3000F038F80546074841
:102E4000D0F8900020F0020004499031086000F0B2
:102E500007F8284630BD0000FFFF070800200240A9
:102E60004FF004600068024800680248006870473C
:102E7000001040080020400803200B49096801F0B9
:102E8000010109B100200EE007490968C1F3800182
:102E900009B1012007E004490968C1F3001109B133
:102EA000022000E0032070478C20024000B502465B
:102EB0000323FFF7E1FF034603E0FFF7DDFF0346CF
:102EC000521E0BB9002AF8D102B90423184600BDDE
:102ED000044805494860054848600248486403487A
:102EE000486470472301674500200240AB89EFCD5D
:102EF00070B504460D460326B4F1006F16D328487A
:102F0000844213D82748006920F00100401C25495D
:102F1000086125604FF48010FFF7E4FE0646214863
:102F2000006920F001001F49086136E01C48401C80
:102F3000844216D3B4F1016F13D21A48006D20F009
:102F40000100401C1749086525604FF48010FFF709
:102F5000F5FE06461348006D20F001001149086592
:102F60001BE0B4F1046F18D30E489030006820F0D5
:102F70000100401C0B499031086025604FF480101F
:102F8000FFF794FF06460748D0F8900020F00100B4
:102F90000449C1F89000FFF763FF304670BD0000A0
:102FA000FFFF07080020024010B582B01446CDE9AB
:102FB00000010023009A2360194B21F00040984241
:102FC0002ADA024328D0B0F5801FA8BF226810DAA1
:102FD0009FED150B53EC102B9DED000B51EC100BDE
:102FE00001F00AF8CDE900016FF0350221F0004050
:102FF00022600F4B6FF31E5103EB205010442060F2
:1030000041F0FF5040F0005001909DED000B00BFDB
:1030100002B051EC100B10BD9DED000BF8E7000065
:103020000000F07F0000000000000000000050439E
:1030300002FCFFFF41617047016170474FF6FF716D
:103040000160002181710171042141710121C1716F
:103050007047F0B50A461588ABB29579032D01D1BA
:1030600000241AE0957965B9557905F00F04557972
:10307000182D01D1036110E05579282D0DD1436140
:103080000BE0957905F00805167906F0040635433E
:10309000D67906F0030645EA0604DDB2A5B10021A3
:1030A00010E001258D401D405DB105688F000F26A1
:1030B000BE40B543056005688E0004FA06F6354348
:1030C0000560491C0829ECD3FF2B15DD1B120021DC
:1030D00010E001258D401D405DB145688F000F2631
:1030E000BE40B543456045688E0004FA06F6354398
:1030F0004560491C0829ECD3F0BD024600209368C6
:103100000B408B4200D000E001207047F0B50C4628
:10311000104F07EB1062C0F30741C0F30725C6B29A
:10312000C5F12007A7EB010C4FF0FF3707FA0CF3AE
:10313000C5F120077F1AFB40CB408B4017689F43A7
:1031400017602CB106FA01FC176847EA0C071760F4
:10315000F0BD0000000001402DED028B00F0F6FDF7
:1031600000F0CCFD00F032FD00F0C2FD00F03AFEB0
:1031700000F034FD4FF40041F848FFF75DFFFDE338
:10318000F74800780A280FD2DFE800F0050FE3FDCA
:10319000FCFBFAF97CF8FEF759FFFEF703FFFEF798
:1031A000E1FE0120EE490870FFE3FFF78FF8FEF71C
:1031B000C7FEEC490870EC48007890B9FEF7F2FEC3
:1031C000EAA0FEF7C5FF01210020FEF7A4FFEBA057
:1031D000FEF7BEFF40F2DC50FEF77CFE0320E24922
:1031E00008700121E848FFF788FF20B3DE48007827
:1031F000012800D100E00020DB490978032901D132
:10320000012100E00021084338B1FEF7CBFEDFA02A
:10321000FEF79EFF0220D4490870D2480078232888
:103220002FD10820CE4908700120DC490870002009
:10323000CD49087025E0CC480078022801D1012052
:1032400000E00020C8490978032901D1012100E0EC
:103250000021084338B1FEF7A5FED1A0FEF778FFA4
:103260000120C1490870BF480078232809D100BF58
:103270000820BB4908700020C84908700320BA49DB
:10328000087092E3FFF722F8FEF75AFEB54908707E
:103290000121BD48FFF731FF08B3B348007808B9F2
:1032A000012000E00020B0490978032901D1012163
:1032B00000E000210843002832D0FEF773FEBCA0D6
:1032C000FEF746FF01210020FEF725FFBCA0FEF718
:1032D0003FFF0120A4490870BD49087020E0A248C2
:1032E0000078012800D100E000209F4909780329D7
:1032F00001D1012100E00021084388B1FEF752FE10
:10330000ABA0FEF725FF01210020FEF704FFB1A0CE
:10331000FEF71EFF002094490870FF20AC4908709A
:103320009048007823280CD19C480078012802D1CD
:1033300002208B4908709948007810B90320884909
:103340000870884800782E2802D10120844908702E
:103350002BE300BF0220A3490870A3480068FEF7D2
:103360005BFFA24880ED000A006800F079FF41ECA5
:10337000180B53EC182B9EA19E4805E0CDE23AE2D3
:103380001CE2F3E17BE16FE0FCF7A4FFFEF70AFE2D
:1033900099A0FEF7DDFE01210020FEF7BCFE954856
:1033A000FEF7D6FE00206F4908700AE0FEF78EFF98
:1033B000FEF7C6FD6B490870084600782E2800D13C
:1033C00056E768480078232801D0012000E000205B
:1033D000644909782E2901D0012100E0002108402C
:1033E0000028E3D1FEF7DEFD87A0FEF7B1FE012144
:1033F0000020FEF790FE89A0FEF7AAFE00205949A2
:1034000008701FE0FEF762FFFEF79AFD554908704D
:1034100008460078232802D10420514908705148F9
:1034200000782E280BD105204D490870FEF7BAFD13
:103430007FA0FEF78DFE01210020FEF76CFE02202A
:103440008049087047480078232801D0012000E017
:103450000020444909782E2901D0012100E00021F3
:1034600008400028CED1A0E200BF03205D490870CB
:1034700075480068FEF7D0FE744880ED000A0068C9
:1034800000F0EEFE41EC180B53EC182B58A17048DD
:10349000FCF720FFFEF786FD6EA0FEF759FE012126
:1034A0000020FEF738FE6A48FEF752FE00202D4944
:1034B00008700AE0FEF70AFFFEF742FD294908708E
:1034C000084600782E2800D1D2E626480078232826
:1034D00001D0012000E00020224909782E2901D0E6
:1034E000012100E0002108400028E3D1FEF75AFD49
:1034F00045A0FEF72DFE01210020FEF70CFE47A09F
:10350000FEF726FE0020174908701FE0FEF7DEFEDA
:10351000FEF716FD1349087008460078232802D1EB
:1035200004200F4908700F4800782E280BD1052081
:103530000B490870FEF736FD3DA0FEF709FE01219C
:103540000020FEF7E8FD03203E490870054800789A
:10355000232801D0012086E084E00000000801401B
:10356000020000200400002068000020C2FBE1E50A
:10357000F0E8F2E520E8E7EC2E000000E7EDE0F7E8
:10358000E5EDE8E500000000000C0140D1E2E5F2C5
:10359000EEE2EEE92049203D203F000069000020D6
:1035A000D2E5ECEDEEE2EEE92049203D203F0000BF
:1035B000C8E7EC2E20E7EDE0F7E5EDE8E5000000D8
:1035C000E4EEEBE6EDEE20E1FBF2FC3A203E2000DB
:1035D0006A000020E4EEEBE6EDEE20E1FBF2FC3ABF
:1035E000203C20006B000020300000205C00002008
:1035F0002566000000000020CFF0E5E42E20E7ED76
:10360000E0F72E20494C3A00C8F1EF2E20EFF0E50C
:10361000E42E20E7EDE0F72E00000000C4E03A20A1
:1036200022232220CDE5F23A20222A2200000000A7
:10363000C2E2E5E4E8F2E520E7EDE0F7E5EDE8E5F4
:103640000000000003000020340000206000002083
:1036500001000020CFF0E5E42E20E7EDE0F72E207A
:1036600049443A000020D24909782E2901D001218D
:1036700000E00021084000287FF448AF95E1FEF704
:1036800091FCCC480078022821D1CB480068FEF795
:10369000C3FDCA4880ED000A90ED000AC84880EDDD
:1036A000000AC648006800F0DBFD41EC180B53EC43
:1036B000182BC4A1C448FCF70DFEAFF2B800FEF70A
:1036C00047FDC148FEF744FD0220BA490870B948D9
:1036D0000078032821D1BD480068FEF79DFDBC4855
:1036E00080ED000A90ED000AB54880ED000AB84868
:1036F000006800F0B5FD41EC180B53EC182BB1A19C
:10370000B448FCF7E7FDAFF2A800FEF721FDB14891
:10371000FEF71EFD0320A749087001210020FEF7D7
:10372000FAFCADA0FEF714FD0020A149087013E0DB
:10373000FEF7CCFDFEF704FC9D49087008460078B2
:103740002E2809D1A9480078022800D102E6A7480E
:103750000078022800D188E60121A548FFF7CDFCBA
:103760000128E5D00720A34908701EE1FEF7AEFD51
:10377000FEF7E6FB8E49087008460078232811D131
:103780009D499E48FFF7F8F8B0EE408AF0EE608A57
:1037900051EC180B00F072FB99490860062095491E
:1037A00008700AE082480078FEF7ACFC8048037895
:1037B000924A94A11046FCF78DFDF6E07D48007812
:1037C000022806D17C4800688D4991ED000AFEF779
:1037D0008FFF78480078032806D17C480068884924
:1037E00091ED000AFEF784FF002084490870042050
:1037F00080490870D9E04FF400418448FFF71AFC73
:103800008348007801283ED100208249086036E0D4
:103810008148804A126830F812107C48FFF70CFC8F
:103820004FF4FA70FEF756FBFEF7C2FD7B4890EDB1
:10383000000A6348D0ED000AB4EEE00AF1EE10FA97
:1038400008DB7748734A126830F812106848FFF7AF
:10385000F3FB07E072486F4A126830F812106448B0
:10386000FFF7E8FB6C486B4A126830F812106748A3
:10387000FFF7E0FB67480068401C66490860654840
:1038800000680828C4D3624890F90000401CE8BBD7
:1038900000206049086036E05F485E4A126830F8F0
:1038A00012105A48FFF7C8FB4FF4FA70FEF712FBEC
:1038B000FEF77EFD594890ED000A4148D0ED000A20
:1038C000B4EEE00AF1EE10FA08D25548514A1268F7
:1038D00030F812104648FFF7AFFB07E050484D4A5A
:1038E000126830F812104248FFF7A4FB4A48494AD0
:1038F000126830F812104548FFF79CFB45480068F5
:10390000401C444908604348006800E001E0082882
:10391000C2D309203749087047E0FEF743FB41A0B6
:10392000FEF716FC01210020FEF7F5FB41A0FEF793
:103930000FFC40F2DC50FEF7CDFAFEF733FB40A05F
:10394000FEF706FC01210020FEF7E5FB40A0FEF794
:10395000FFFB00201649087015E0FEF7B7FCFEF7E4
:10396000EFFA1349087008460078232802D1042092
:10397000204908700E4800782E2800E016E002D199
:1039800001201C4908700A480078232801D0012032
:1039900000E00020064909782E2901D0012100E02D
:1039A000002108400028D8D100BF00BFFFF7E8BBC6
:1039B0000400002003000020300000205C000020F4
:1039C00064000020256C6600000000203400002008
:1039D0006000002001000020E7E0EFF3F1F2E8F2E0
:1039E000E520EFF0E5EEE1F0000000006B000020C4
:1039F000001801400200002008000020A001002063
:103A00000C00002025732563000000000008014021
:103A10006A000020480000202000002078000020DC
:103A200010000020CFF0E5EEE1F0E0E7EEE2E0ED9F
:103A3000E8E50000E2FBEFEEEBEDE5EDEE00000067
:103A4000CFF0EEE4EEEBE6E8F2FC3A20222322008F
:103A5000CDEEE2EEE520E7EDE0F73A20222A220063
:103A600000BF00F00702064B19684FF6FF0319402C
:103A7000044B0B4343EA0221014B196000BF70471E
:103A80000CED00E00000FA052DE9F04700260024C7
:103A900000250027A046A146FFF7F8F88246BAF1B4
:103AA000000F06D0BAF1010F15D0BAF1020F46D1BE
:103AB00015E02D48406DC0F3402040B12A48006B0E
:103AC000C0F3406018B129482949086002E029483C
:103AD0002749086037E027482549086033E0224835
:103AE0004068C0F3004720484068C0F383441E4844
:103AF0004068C0F341750DB90F2C03D12801401C5B
:103B0000044400E0A41C27B91B486043184908601E
:103B100014E015484068C0F3404058B11248406D69
:103B2000C0F30136B01C1349B1FBF0F060431049FB
:103B3000086003E00F4860430D49086003E00D484A
:103B40000B49086000BF00BF07484068C0F3031876
:103B50000A4810F808900648006820FA09F004495D
:103B60000860BDE8F087000000100240006CDC0235
:103B70009C01002000127A0000093D005C4400080E
:103B8000C1628262436923F001035B1C4361704799
:103B9000026861F3061202607047026861F3000276
:103BA000026070470146486A704741627047026888
:103BB00061F3410202607047026861F3C71202605C
:103BC0007047426861F306124260704710B50121E8
:103BD0000148FFF79BFA10BD020310301CB5684680
:103BE000FFF72CFA00208DF80600E1200090042059
:103BF0008DF8050069463948FFF72BFA00208DF84B
:103C000006004FF6FF70009004208DF8050069460D
:103C10003348FFF71EFA00208DF806004FF6FF70BC
:103C2000009004208DF8050069462E48FFF711FA30
:103C300000208DF806000720009004208DF8050074
:103C400069462948FFF705FA4FF61E712348FFF72A
:103C5000F1F948F2FE112548FFF7ECF94FF47E71B7
:103C60002148FFF7E7F902208DF8070000208DF8C2
:103C7000040010208DF806004FF61E7000900420FE
:103C80008DF8050069461548FFF7E3F902208DF825
:103C9000070000208DF8040010208DF8060048F27F
:103CA000FE10009004208DF8050069460F48FFF7CC
:103CB000D0F902208DF8070000208DF804001020B4
:103CC0008DF806004FF47E70009004208DF80500FA
:103CD00069460548FFF7BDF91CBD0000001801400A
:103CE00000100140000C0140001401400008014098
:103CF00010B50320FFF7B4FE10BD000010B5012180
:103D00004FF4C010FEF718FF01210E48FEF714FF14
:103D100001210C48401CFEF70FFF01210948801CBF
:103D2000FEF70AFF01210748C01CFEF705FF01212D
:103D30000448001DFEF700FF01210348FEF7FCFECA
:103D400010BD00000200180005001C0010B5FEF7B1
:103D500053FF01210420FEF78FFE00BF2048FEF72D
:103D6000BBFE0128FAD101210846FEF785FE00BFFF
:103D7000FEF7CAFE0028FBD001210020FEF77CFEE2
:103D800000BF0120FEF7A8FE0128FAD101221D2163
:103D90001046FEF7F3FE01210220FEF76DFE00BF84
:103DA0001920FEF799FE0128FAD10020FEF732FE15
:103DB0000420FEF743FE0620FEF736FE0120FEF744
:103DC00047FE0220FEF744FF00BFFEF75FFF022818
:103DD000FBD10020FEF73CFEFFF756FE10BD0000B1
:103DE0000100240010B54EF660224FF6E8510C4851
:103DF000FFF7C6FE00210A48FFF7CAFE0021084867
:103E0000FFF7DAFE00210648FFF7DBFE0121044838
:103E1000FFF7CDFE01210248FFF7BFFE10BD0000F5
:103E20000014004010B500290AD00878002807D0F7
:103E300005487844FDF75CF9002801D0002010BD4A
:103E40000248784410BD0000FE060000F60600009F
:103E500010B500290AD00878002807D00548784412
:103E6000FDF746F9002801D0002010BD0248784433
:103E700010BD0000EE060000E606000021F0004242
:103E8000A2F16052B2F5801F01F0004328BFD2F1C9
:103E90007F6C0BD95FEA001C43EAC20242EB507010
:103EA00018BF704728BF20F001007047B2F5801F8F
:103EB000BCBF184670474FEA410C1CF5001F02D2E8
:103EC000084600F043BA70B500F040F900000089E0
:103ED000FFF7F6BF4FF00040A0F5800070470000EC
:103EE00002494FF0000000F03BBA00BF0000F87F2D
:103EF000491058BFC1F140415B1058BFC3F1404366
:103F00008B42EFF30080704751EA030C17D41CF585
:103F1000801F58BFBCF5801F00F10680994218BF72
:103F2000704708BF9042704707D711F5801F58BFF0
:103F300013F5801F19D499427047894270471CF5C8
:103F4000801F08D5BCF5801FF7D58B4218BF70477E
:103F500008BF824270474FF4001C1CEB410F38BF72
:103F60001CEB430F01D28B42704770B500F0EEF8A6
:103F7000922449004FF000514FF08053FFF7B8BF33
:103F800051EA030C17D41CF5801F58BFBCF5801FE5
:103F900000F10680994218BF704708BF90427047F1
:103FA00007D711F5801F58BF13F5801F19D4994208
:103FB0007047894270471CF5801F08D5BCF5801FEB
:103FC000F7D58B4218BF704708BF824270474FF445
:103FD000001C1CEB410F38BF1CEB430F01D28B427E
:103FE000704770B500F0B2F8922449004FF00051CC
:103FF0004FF08053FFF77CBFDFF848C170B51CEA73
:10400000111E1EBF1CEA13159EEA0C0F95EA0C0F39
:1040100000F06F8081EA030423EA4C134EEAD47E59
:1040200021EA4C1141F4801143F48013AE44A1FB0A
:10403000024CA0FB0365AEF17F7E361955EB0C05F3
:10404000A1FB034C4CF10003A0FB021C16EB0C0679
:10405000654153F10003094218BF46F0010613F40D
:10406000007F0BD14FEA03314FEA0530340341EAB8
:10407000155140EA16506FF003020AE04FEAC321DF
:104080004FEAC520F40241EA555140EA56506FF01C
:10409000020202EB2E4201EB025585EACE710AD0F4
:1040A0005FEA440C18BF24F0004450F1000041F1D5
:1040B000000120EAD47040F2FE7C624500D270BD5F
:1040C000A84214BF4FF080444FF04044002E08BF78
:1040D0000024BEF1806FA8BFA1F1C041BDE87040CF
:1040E00080F282804FF0000001F1C04101F00041F8
:1040F00070479EEA0C0F0CEA131518BF95EA0C0FD7
:1041000006D04FF0000081EA030E0EF0004170BDB2
:1041100000F01CF88900013E00F007B800F009B873
:104120004FEA430C5FEA5C5C08D081EA030100F0CF
:104130005BB84FEA410C5FEA5C5CF6D14FF00000DF
:10414000014970470000FF070000F87F0EF1020EE2
:104150002EF0030E5EF8046B364205D4012A43EBC1
:10416000030515F5001F12D8012841EB010C1CF5C1
:10417000001F0CD80ED14FEAD17C15F5001F0CEBB7
:104180004C0C0CF1020C08BF4CEBD37C04E04FF05C
:10419000080C01E04FEAD37C0CEB4C0526FA05F63F
:1041A00006F00706B6F1040C06D20EEB860CBDE84D
:1041B00070404CF0010C6047DFE80CF0090B020284
:1041C0004FF000414FF00000A1F5002170BD1946ED
:1041D0001046012851EB010418BFD4F5001484BF28
:1041E000002001F0004170BD0808A0F500114FEA61
:1041F0003101704753EA010C17D41CF5801F58BFDA
:10420000BCF5801F00F106808B4218BF704708BFC5
:104210008242704707D713F5801F58BF11F5801FE2
:1042200019D48B4270479B4270471CF5801F08D5FC
:10423000BCF5801FF7D5994218BF704708BF904260
:1042400070474FF4001C1CEB430F38BF1CEB410FB1
:1042500001D2994270470FB40CBC03BCFFF7C1BE3A
:1042600043004FEAD30C4FEA3C0C43401FBF4007CA
:104270000CF1605113F0FE4F70471CF0006F03D13A
:1042800000200CF0004170470CF0004343EA5070EE
:1042900010B540EACC0000F00EF800BF000000921C
:1042A0004FEA0001FFF7A0BF4FF000414FF00000C0
:1042B000A1F5002170470EF1020E2EF0030E5EF8FC
:1042C000044B244204D44FEA4102B2F17F4F11D88B
:1042D0004FEA4003B3F17F4F0CD80ED14FEAD07CA8
:1042E000B2F17F4F0CEB4C0C0CF1020C08BF4CEB05
:1042F000D17C04E04FF0080C01E04FEAD17C0CEBDC
:104300004C0324FA03F404F00704B4F1040C06D2BD
:104310000EEB840CBDE810404CF0010C6047DFE868
:104320000CF0070802024FF00040A0F5800010BD1D
:104330000846420018BFD2F1807288BF00F00040EA
:1043400010BD4FF04070E1EE100A7047FF2141EAC6
:10435000D050C00570474FF000007047FCF72FB9F0
:104360000CF00F03092B08BF082000F05F800A2B18
:104370000BD0082B18BF704708BF1CF0400F0AD0A5
:104380004FF000004FF0000170471CF0400F18BFC5
:104390004FF0004070471CF0100F08D020F0704321
:1043A00000F07F4242EAD3014FEA4370704700F0C9
:1043B000604021F07F4242EA000201F07F4040EA83
:1043C000727070474FF0FF0C4CF4E06C1CEA115314
:1043D0001CBF9CEA030C9445C2BFDA4201EB0251B8
:1043E0007047002B0DD0BCF1000F0FD0002A01F058
:1043F0000041A4BF41F0E04141F07F614FF0000077
:10440000704701F000414FF00000704750EA01335F
:104410004FF09B0C18BF4CF0806C7FF461AD70477F
:10442000FCF706BDFCF7B4BEFDF742B81CF4801FD4
:1044300011D01CF4E02F03D06FEACC314900704753
:104440004FF04050EFF3008222F0704242EA000247
:1044500082F3008870474FF00000704700000000B2
:1044600000000000010203040607080902400000E2
:10447000000000A00000000005400000000000C88F
:10448000000000000C4000000000409C0000000004
:10449000194000000020BCBE0000000034400000B5
:1044A000BFC91B8E00000004B5400000504BCFD0A8
:1044B0006607E2CF010000006C4100003E8251AA75
:1044C000DFEEA73401000000D9420000DCB5A0E215
:1044D0003A301F97FFFFFFFFB4450000FD25A0C83D
:1044E000E9A3C14FFFFFFFFFFF3F00000000008076
:1044F00000000000FF3F00000000008000000000FE
:104500005C46000800000020A0010000C001000877
:104510009C470008A0010020980600001C0200082B
:10452000000000000000F07FFFFFFFFFFFFFEF7FB4
:104530001C00000043000000F8FFFFFF0C0000001B
:104540000E0000000F0000002E000000100100000F
:1045500043000000F8FFFFFF004040404040404063
:104560004040414141414140404040404040404046
:1045700040404040404040404005020202020202EA
:104580000202020202020202022020202020202039
:10459000202020020202020202029090909090904D
:1045A000101010101010101010101010101010100B
:1045B000101010100202020202028888888888887F
:1045C000080808080808080808080808080808086B
:1045D0000808080802020202400000000000000073
:1045E00000000000000000000000000000000000CB
:1045F00000000000000000000000000000000000BB
:1046000000000000000000000000000000000000AA
:10461000000000000000000000000000000000009A
:10462000000000000000000000000000000000008A
:10463000000000000000000000000000000000007A
:10464000000000000000000000000000000000006A
:104650000000000000000000000000000111120135
:10466000120212041208121012201240BA800D1900
:104670001E15F0F70F081AF80401257B803F041A75
:10468000023D000A2001020A03640401050A00FF3A
:10469000002231423282332434443584362837486C
:1046A000388839302E50309023C041C1A0C242C357
:1046B000A1C4E0C545A8A2E061E1B2E2B3E3B4E47D
:1046C000E3E565B8B5C6A3C7A4C8A5C9A6CA4BCBC0
:1046D000A7CC4DE6B6E7B7E8B8E9B9EABAEBBBEC68
:1046E000BCCD48CE4FCFA8D050D143D254D3A9EDA2
:1046F000BDEE6FEFBEF070F163F2BFF379D4AAD5CF
:1047000058D6E1D7ABD8ACD9E2DAADF4E4F5D5F6BA
:10471000E5F7C0F8C1F9E6FAC2DBAEDC62DDAFDE78
:10472000B0DFB1FBC3FCC4FDC5FEC6FFC7414142BB
:10473000424343444445454646474761616262639C
:10474000636464656566666767484849494A4A4BD9
:104750004B4C4C4D4D4E4E686869696A6A6B6B6C88
:104760006C6D6D6E6E4F4F505051515252535354A9
:104770005455556F6F707071717272737374747574
:104780007556565757585859595A5A767677773733
:0C479000787879797A7A13127A000000A8
:040000050800018569
:00000001FF
