:020000040800F2
:10000000700600202502000815050008F30200080C
:1000100011050008D50200088D0500080000000049
:1000200000000000000000000000000019050008AA
:10003000D902000800000000170500081B05000891
:100040003F0200083F0200083F0200083F0200088C
:100050003F0200083F0200083F0200083F0200087C
:100060003F0200083F0200083F0200083F0200086C
:100070003F0200083F0200083F0200083F0200085C
:100080003F0200083F0200083F0200083F0200084C
:100090003F0200083F0200083F0200083F0200083C
:1000A0003F0200083F0200083F0200083F0200082C
:1000B0003F0200083F0200083F0200083F0200081C
:1000C0003F0200083F0200083F0200083F0200080C
:1000D0003F0200083F0200083F0200083F020008FC
:1000E0003F0200083F0200083F0200083F020008EC
:1000F0003F0200083F0200083F0200083F020008DC
:100100003F0200083F0200083F0200083F020008CB
:100110003F0200083F0200083F0200083F020008BB
:100120003F0200083F0200083F0200083F020008AB
:100130003F0200083F0200083F0200083F0200089B
:1001400000000000000000000000000000000000AF
:100150003F0200083F0200083F0200083F0200087B
:100160003F0200083F0200083F0200083F0200086B
:100170003F0200083F0200083F0200083F0200085B
:100180003F02000800F002F800F03CF80AA090E8F6
:10019000000C82448344AAF10107DA4501D100F042
:1001A00031F8AFF2090EBAE80F0013F0010F18BFD3
:1001B000FB1A43F0010318470C0600002C06000050
:1001C000103A24BF78C878C1FAD8520724BF30C883
:1001D00030C144BF04680C60704700000023002455
:1001E00000250026103A28BF78C1FBD8520728BF47
:1001F00030C148BF0B6070471FB500F0DDFA1FBD6E
:1002000010B510BD00F033F81146FFF7F5FF00F010
:10021000ADFA00F051F803B4FFF7F2FF03BC00F0B1
:10022000B7F900000948804709480047FEE7FEE7A4
:10023000FEE7FEE7FEE7FEE7FEE7FEE7FEE7FEE796
:1002400004480549054A064B704700001D05000893
:100250008501000870000020700600207002002058
:1002600070020020704770477047704770477546AE
:1002700000F02CF8AE4605006946534620F0070012
:10028000854618B020B5FFF7DBFFBDE820404FF0F2
:1002900000064FF000074FF000084FF0000B21F070
:1002A0000701AC46ACE8C009ACE8C009ACE8C0093D
:1002B000ACE8C0098D46704710B50446AFF3008026
:1002C0002046BDE81040FFF7A6BF00000048704779
:1002D0001000002000BFFEE7704700BF00214FF470
:1002E0002F6300FB03F200E0491C9142FCD3002184
:1002F000704700BFFEE7000010B50446102110480B
:1003000000F071F900F068F9201100F0C9F8082137
:100310000B4800F06AF900F05FF90821084800F086
:1003200062F9204600F0BCF80821054800F05DF9AC
:1003300000F052F90821024800F055F910BD000004
:100340000014014010B504461021104800F04DF98A
:1003500000F042F9201100F0A3F808210B4800F04A
:1003600044F900F039F90821084800F03CF920462A
:1003700000F096F80821054800F037F900F02CF954
:100380000821024800F02FF910BD000000140140C0
:1003900010B52820FFF7A1FF10212A4800F023F90B
:1003A00000F01AF9032000F07BF80821254800F03E
:1003B0001CF900F011F90821224800F014F901207D
:1003C000FFF78BFF032000F06BF808211D4800F0B9
:1003D0000CF900F001F908211A4800F004F9012095
:1003E000FFF77BFF032000F05BF80821154800F0C1
:1003F000FCF800F0F1F80821124800F0F4F80120B0
:10040000FFF76BFF2820FFF777FF0220FFF765FF5C
:100410000F20FFF771FF0220FFF75FFF0120FFF7BA
:100420006BFF0220FFF759FF0620FFF765FF022050
:10043000FFF753FF0220FFF75FFF0220FFF74DFF9A
:1004400010BD00000014014070B504460D4615B102
:10045000012D13D107E044F08000FFF74DFF01208C
:10046000FFF73BFF0AE004F14001C9B241F0800010
:10047000FFF742FF0120FFF730FF00BF00BF70BD54
:1004800070B50446002506E0605DFFF75BFF00F0F5
:10049000A3F8681CC5B2605D0028F5D170BD0000EE
:1004A00010B50446C4F3C00028B14FF4807117485A
:1004B00000F09BF804E04FF48071144800F093F8CA
:1004C000C4F3800020B18021104800F08EF803E0D2
:1004D00080210E4800F087F8C4F3400020B140218D
:1004E0000A4800F082F803E04021084800F07BF859
:1004F00004F0010020B12021044800F076F803E068
:100500002021024800F06FF810BD000000140140E7
:1005100000BFFEE770477047704770471848006893
:1005200040F47000164908601648006820F0010089
:10053000401C1449086000BF12480068C0F3400026
:100540000028F9D00F48406820F003000D494860AA
:1005500000BF0C484068C0F381000028F9D1094869
:10056000006809490840074908600020486008639E
:100570004FF41F008860C803014980390860704744
:1005800088ED00E000100240FFFFF2FE00BFFEE732
:1005900000BF704710B501290DD10E4B03EB10427F
:1005A000126800F01F040123A3401A43094C04EB16
:1005B00010431A600CE0074B03EB1042126800F086
:1005C0001F040123A3409A43024C04EB10431A601A
:1005D00010BD000000100240002001E0411C88B264
:1005E0000A28FBDB704741617047016170474FF695
:1005F000FF710160002181710171042141710121AC
:10060000C1717047F0B50A461588ABB29579032DD4
:1006100001D100241AE0957965B9557905F00F04E8
:100620005579182D01D1036110E05579282D0DD190
:1006300043610BE0957905F00805167906F004068C
:100640003543D67906F0030645EA0604DDB2A5B1C6
:10065000002110E001258D401D405DB105688F002F
:100660000F26BE40B543056005688E0004FA06F605
:1006700035430560491C0829ECD3FF2B15DD1B12FF
:10068000002110E001258D401D405DB145688F00BF
:100690000F26BE40B543456045688E0004FA06F655
:1006A00035434560491C0829ECD3F0BD1CB5012138
:1006B0000C48FFF76FFF6846FFF799FF01208DF8A0
:1006C000070000208DF8040010208DF80600FE20A1
:1006D000009004208DF8050069460348FFF792FF5B
:1006E0001CBD000006001800001801401CB50121C7
:1006F0000C48FFF74FFF6846FFF779FF01208DF8A0
:10070000070000208DF8040010208DF806004FF43B
:10071000FC70009004208DF8050069460248FFF740
:1007200071FF1CBD05001800001401401CB50446F3
:1007300001210C48FFF72EFF6846FFF758FF012004
:100740008DF8070000208DF8040010208DF80600B9
:100750004FF47F4000908DF8054069460248FFF74E
:1007600051FF1CBD0600180000180140FFF7BEFF36
:10077000FFF79CFFFFF70CFE0D48FFF781FE0121FC
:100780000020FFF761FE12E01820FFF7CFFF0421E1
:100790000848FFF72AFF4FF47A70FFF79EFD042107
:1007A0000448FFF720FF4FF47A70FFF796FDEBE760
:1007B00000000020001801404FF04070E1EE100AE8
:1007C00070470000E407000800000020100000004F
:1007D000C0010008F40700081000002060060000B7
:1007E000DC010008456E7465722076616C75653AAF
:0407F0000000000005
:040000050800018569
:00000001FF
