:020000040800F2
:10000000C80600205502000865210008E51E00080A
:1000100061210008451E0008ED22000800000000D4
:10002000000000000000000000000000692100083E
:10003000551E000800000000672100086D0200083E
:100040006F0200086F0200086F0200086F020008CC
:100050006F0200086F0200086F0200086F020008BC
:100060006F0200086F0200086F0200086F020008AC
:100070006F0200086F0200086F0200086F0200089C
:100080006F0200086F0200086F0200086F0200088C
:100090006F0200086F0200086F0200086F0200087C
:1000A0006F0200086F0200086F0200086F0200086C
:1000B0006F0200086F0200086F0200086F0200085C
:1000C0006F0200086F0200086F0200086F0200084C
:1000D0006F0200086F0200086F0200086F0200083C
:1000E0006F0200086F0200086F0200086F0200082C
:1000F0006F0200086F0200086F0200086F0200081C
:100100006F0200086F0200086F0200086F0200080B
:100110006F0200086F0200086F0200086F020008FB
:100120006F0200086F0200086F0200086F020008EB
:100130006F0200086F0200086F0200086F020008DB
:1001400000000000000000000000000000000000AF
:100150006F0200086F0200086F0200086F020008BB
:100160006F0200086F0200086F0200086F020008AB
:100170006F0200086F0200086F0200086F0200089B
:100180006F02000800F002F800F055F80AA090E8AD
:10019000000C82448344AAF10107DA4501D100F042
:1001A0004AF8AFF2090EBAE80F0013F0010F18BFBA
:1001B000FB1A43F0010318471033000030330000EE
:1001C000103A24BF78C878C1FAD8520724BF30C883
:1001D00030C144BF04680C60704700000023002455
:1001E00000250026103A28BF78C1FBD8520728BF47
:1001F00030C148BF0B607047662903F093806329C4
:1002000000F0F382732900F0F882002070471FB5D8
:1002100003F07BF800F002FB04000020002102F054
:10022000FBFD401C60600020002102F0DFFDE0606B
:100230001FBD10B510BD00F043FC1146FFF7E7FFEE
:1002400002F0BAFB00F095FC03B4FFF7F2FF03BC29
:1002500000F060FF0948804709480047FEE7FEE7D5
:10026000FEE7FEE7FEE7FEE7FEE7FEE7FEE7FEE766
:1002700004480549054A064B704700007D220008E6
:1002800085010008C8000020C8060020C802002020
:10029000C80200200FB41CB5074B06AA7B44694670
:1002A0000090059800F07FFA0020694600F08EFA71
:1002B0001CBC5DF814FB00002D0500002DE9F04189
:1002C0000E460446002020622046E168884730B38D
:1002D000252805D0D4E901219047206A401CF2E787
:1002E000E168204600278847050018D0A5F14100A5
:1002F000192802D820354FF4006732462946204697
:100300002760FFF779FF40B1012804D0F61D26F0E1
:1003100007060836D8E7361DD6E72846DAE7206A0A
:10032000BDE8F08170B50C460546012A05D0287855
:10033000800600D5EA69002302E0012305E05B1C8A
:10034000934202D2E05C0028F9D1A869E618C01AED
:10035000A861286A184428622846AFF3008004E0A8
:10036000D5E9012114F8010B9047B442F8D328468F
:10037000AFF3008070BD70477047704770472DE93C
:10038000FF4F0C461E464FF0FF378BB0D2E90001FD
:10039000DDF860800A908A46C1F30A5505B93D46EA
:1003A000002108464FF00000BAF1000F00F44000B1
:1003B00005DA00EB80004FF4400101EA50004FEAFB
:1003C0009059B9F1010F00DDB9460A9850EA4A0088
:1003D0000ED044F61050A5F2FF3545432F14B8F166
:1003E000000F1ED07542291E1EDDC9F100021CE05F
:1003F000B8F1010F4FF0000001D0302103E0F243CB
:1004000005E02154401CB042FBDB304600220021B5
:1004100021540B99C1F80880C1E900200FB0BDE854
:10042000F08FBD1B6D1CDEE74A4600DA694206A864
:1004300000F0D0FA06AB93E8070003AB83E80700AF
:1004400050460A9901F0B8F88DE80700A0F5005071
:100450001F3800900398002D0ADD42F21F014A4622
:100460000844002303A90390684601F063FB09E0F8
:10047000A0F500504A461F38002303A903906846A0
:1004800001F082FB8DE807000004000C03D04FF060
:10049000FF30410800E01046B8F1000F03D0002201
:1004A000009215461EE0751E05D400F0BBF93032EF
:1004B00062556D1EF9D5B3460122084302D00022D1
:1004C0007F1C04E02078302801D100227F1E002A02
:1004D000099784D01DE0112D07DA00F0A3F930321E
:1004E00062556D1C50EA0102F5D1084302D0009814
:1004F000C8B10EE00021681E05E0235C625C635415
:100500002254401E491C8142F7DBAB46A81B401E0B
:100510000990002004F80B000B98099AC0F8088095
:10052000C0E9002B7AE711264FF0000857E72DE9C4
:10053000F04F88460446D21D22F0070191B0D1E960
:100540000001CDE90A0101F0D3FE02460B98C00F6D
:1005500001D02D2007E02068810701D52B2002E083
:10056000202101EAC000032A099001D0072A05DBF7
:1005700003464146204600F09BF90BE120788006B7
:1005800001D5E06900E00620B8F1650F814606D08C
:10059000B8F1660F18D0B8F1670F70D131E00020C4
:1005A000B9F1110F009001DB112301E009F1010302
:1005B0000AAA01A90CA8FFF7E2FEDDE90C700026EB
:1005C00009F10105834647E001204B4600904FF0BA
:1005D00000470AAA01A90CA8FFF7D1FEDDE90DB07A
:1005E0000C995D46002610B909F101000D18B9EB10
:1005F000050003D4C0F1FF3609F10105A5EB0900A0
:100600002BE0B9F1010F01DA4FF001090020B9F137
:10061000110F0090484601DD112300E003460AAAAD
:1006200001A90CA8FFF7ABFEDDE90C704D460026D2
:100630008346207800070AD4AB4500DA5D4601A85E
:10064000012D04DD411911F8011C302907D04F4557
:1006500002DA17F1040F04DA012082460FE06D1E62
:10066000EEE7002F02DCED1B3E4403E0781CA842BD
:1006700000DD7D1CB81B00F1010A4FF00047207817
:10068000000703D4AA4501DB4FF0FF3A0021B7F180
:10069000004F0DF143088DF8431024D002202B2386
:1006A000002F01DA7F422D230A21021EA0F1010052
:1006B00000DC5FB197FBF1FC97FBF1F201FB1C7CC6
:1006C00017460CF1300C08F801CDEEE7A8F1010057
:1006D00003702188090501D5452100E06521A0F1BD
:1006E000010800F8011C09980FA9A1EB0807FF1DDC
:1006F00000B10120411901EBEA70A1693844081AE0
:10070000401EA0612078C00602D42046AFF30080CE
:10071000099828B1D4E901219047206A401C206241
:100720002078C00622D52046AFF300801EE0002EC0
:1007300004DBB34502DD01A8805D00E03020D4E990
:1007400001219047206A401C2062761CAAF101001A
:100750005FEA000A0AD100F061F8C0680168405CF5
:10076000D4E901219047206A401C2062281EA5F18F
:100770000105DCDC07E0D4E9012118F8010B904702
:10078000206A401C2062381EA7F10107F3DC2046D6
:10079000AFF30080032011B041E6000001694A1C5C
:1007A00002610878704700B58FB0CDE901310021B2
:1007B000059105497944CDE9031011466846FFF7D4
:1007C0007DFD0FB000BD0000E5FFFFFF0A6802F8E5
:1007D000010B0A60704710B5436913B1AFF3008095
:1007E00001E0FFF79FFD012010BD127800F1240108
:1007F0000A7000224A700122EDE711684FF0FF32C3
:10080000E9E77CB5054600236846CDE9003300F0F2
:10081000ADF86946284601F097FE7CBD0048704758
:100820008400002030B5B0F10A024FEA900E71F159
:1008300000034EEA817EB0EB0E0061EB91014FEABE
:10084000101E4EEA017E10EB0E0041EB11114FEA33
:10085000102E4EEA016E10EB0E0041EB11214FEA13
:10086000104E4EEA014E10EB0E0041EB11414018C4
:1008700041F100014FEAD00040EA41704FEAD10156
:1008800010EB80054FEA810444EA907444EB0104C4
:100890006D1944EB0404521BA3414FF0000348BF01
:1008A0000A3200D530BD401C41F1000130BD0000CE
:1008B0002DE9F0411F46044603260168072A01F48A
:1008C000006004DB08B116A505E016A503E008B139
:1008D00015A500E015A521F010002060A069C01E3C
:1008E000A0610FB1401EA0612046AFF300804FB160
:1008F000D4E9012138469047206A401C2062C01C80
:10090000206206E0206AFAE7D4E9012115F8010B1C
:100910009047761EF8D22046AFF30080BDE8F08104
:100920004E414E006E616E00494E4600696E660093
:100930000FB4002300B589B00CA900910B99CB60CE
:10094000214B7B440693214B7B44079304236FF098
:100950000042CDE901321E4A7A446B4608920246B3
:10096000002002F041FD09B05DF814FB70B50646A9
:100970004FF0FF3015460C46324686B00091CDE967
:10098000010169460020049004A8FFF7D1FF024648
:100990000498211825B108B1084600E020462860D7
:1009A000049800280DD0002A02DD0098884208D063
:1009B0003246081B69460094CDE9010404A8FFF7FC
:1009C000B7FF06B070BD0000ED0100000502000099
:1009D000C50100002DE9F047814616468AB035482A
:1009E00078440DC88DE80D0032487844801C03AC73
:1009F0000DC884E80D0041F69B300844372190FB78
:100A0000F1F290FBF1F5A5F1800501FB12041B3C0E
:100A100002D56442012000E00020DFF898A0804663
:100A20000027FA44AAF1BE0A0EE0E0070AD03246D7
:100A3000684607EB470101230AEB810101F0A4F8A6
:100A40008DE8070064107F1C002CEED1194F7F4405
:100A5000AE3F19E0E80715D007EB04100DF1180AB6
:100A600090E80E008AE80E00C068F04201D19819A3
:100A700008903246012306A903A801F085F803ABCC
:100A800083E807006D10641C002DE3D14FF00103D3
:100A900032466946B8F1000F03A802D001F04AF8C7
:100AA00001E001F071F8C9E90001C9F808200AB0B5
:100AB000BDE8F087CC2A00000048704764000020A1
:100AC0007546FFF7F9FFAE4605006946534620F02C
:100AD0000700854618B020B5FFF7CAFBBDE82040E7
:100AE0004FF000064FF000074FF000084FF0000BEA
:100AF00021F00701AC46ACE8C009ACE8C009ACE89D
:100B0000C009ACE8C0098D46704710B500F082F806
:100B1000006810BD10B5044600F07CF8046010BDFC
:100B200010B5044600F06EF80068005D00F00100AA
:100B300010BD426842B1016811F8013B23B1521E59
:100B4000C0E90012184670470121C160881E704735
:100B500042685AB1C368016843B983688B4205D0C3
:100B6000491E521CC0E90012002070474FF0FF30B0
:100B7000704710B50446AFF300802046BDE8104032
:100B8000FFF762BB4FF0013C50F8042B51F8043BD7
:100B90009A4221D1A2EB0C03934313EACC1317D151
:100BA00050F8042B51F8043B9A4215D1A2EB0C03E8
:100BB000934313EACC130BD150F8042B51F8043BA8
:100BC0009A4209D1A2EB0C03934313EACC13DBD076
:100BD0004FF00000704700BFD01A01BAB1FA81F19E
:100BE00001F0180122FA01F0CB40C1F12001DBB283
:100BF000C0B2C01A2CFA01F3D11A914311EAC31101
:100C0000E6D1704710B5FFF709FE001D10BD00BF0B
:100C10000922000000487047640000202DE9FF4FC2
:100C200006468BB00878FF2806D0491C2D2805D031
:100C300000244FF0000908E000200CE00124F8E750
:100C400009EB8903491C00EB43090878FF28F7D119
:100C500014B1C9F100008146107800252C46AA463F
:100C600029462D2801D02B2804D1521C2D2813D021
:100C7000002082468B461078FF280FD04FF0000CE2
:100C80000A21521CA5FB017804FB018105FB0C1114
:100C9000C5194BEB0104EEE70120EAE70021084605
:100CA0004FF00000BAF1000F02D000EB80004008C6
:100CB000C0F38157012F01DD4FF0FF370E9955EA40
:100CC000040009EB01080BD04FF0020918F5FA7F78
:100CD00016DA4FEACA70002F706008DD012007E0C5
:100CE0004FEACA70C6E900B00FB0BDE8F08F00202F
:100CF0003060FFF78FFFC0F800901821084616E01B
:100D0000B8F5FA7F18DD002F02DAF748784401E0E1
:100D1000F6487844D0E90010C6E9001040EACA70ED
:100D20007060FFF777FFC0F80090142108460FB0FD
:100D3000BDE8F04F02F0F3BA002108464FF0000082
:100D4000B8F10001099002DAC7F1000200E03A466A
:100D500001DAC8F1000106A8FFF73CFE06AB93E8F4
:100D6000070003AB83E8070044F23E005BEA04019E
:100D70000090584604D144F21E012C465D46009175
:100D8000210C0904014306D10099240444EA1544C6
:100D90002D041039009104F07F41014306D10099E0
:100DA000240244EA15642D020839009104F07041D0
:100DB000014306D10099240144EA15742D01091F4D
:100DC000009104F04041014306D10099A40044EA97
:100DD0009574AD00891E009104F00041084304D1D0
:100DE00000986D196441401E00904FF001033A468F
:100DF0006846B8F1000FCDE9014503A902DD00F016
:100E0000D8FE01E000F0ABFEBAF1000F04460D463B
:100E100001D084F00044002108464FF000000999F9
:100E200040F2FF77484010F00C0F07D124F000404B
:100E3000284303D0C4F30A50B84212D1FFF7EAFEA8
:100E4000C0F80090C4F30A50B8420AD1A8487844C8
:100E5000D0E90010C6E9001004F0004108437060BA
:100E600042E7C6E900543FE72DE9FF4F1F464FF028
:100E7000000A4FF0FF38454691B0D7E90146CDF85A
:100E80003CA0FFF7CBFCC0680168405C1090B969DA
:100E900012986D1C8847396A814688470028F6D128
:100EA000B9F1FF3F0AD0002E24F4D06411DDB9F16E
:100EB0002B0F08D0B9F12D0F0BD102E0404615B031
:100EC00013E744F48064B96912986D1C8847761E54
:100ED0008146600504A901D52D2000E02B20002EBD
:100EE00001F1010B0DF130088DF810003FDDB9F173
:100EF000690F08D0B9F1490F05D0B9F16E0F02D0D2
:100F0000B9F14E0F1CD13B4601A8009580E8500274
:100F1000DDE912126FF0020002F06AFAC11CCED1B4
:100F20000EE0B96912986D1C884781461398761EA9
:100F300044F4007405600F98401C002E0F9016DDDD
:100F4000B9F1300FEDD0B9F1780F02D0B9F1580FE7
:100F50000DD10F9801280AD13B46CDE90054DDE9B7
:100F60001212001F029602F041FAC11CA7D110997B
:100F700089453ED144F0800406E01399681CAAF12B
:100F8000010A44F400740860B9696D1C1298761E59
:100F9000884730288146F0D02BE01099894505D14B
:100FA000200603D4761E44F0800418E0484601F081
:100FB000DEFA08B3761E0DF123018B4544F400746C
:100FC00008D2A9F130000BF8010B200607D5AAF1D1
:100FD000010003E0200602D40AF101008246A005C8
:100FE00002D51399681C0860B96912986D1C88476E
:100FF0008146002ED1DC53E0002E51DDB9F1650FA2
:1010000002D0B9F1450F4BD1A00549D5B9696D1C86
:101010001298761E24F440748847002E81460CDD19
:101020002B2804D0B9F12D0F07D144F48074B9698D
:1010300012986D1C8847761E8146E00501D52D214A
:1010400000E02B2108F8011BCDF8008021E0761E7E
:101050000DF13901884544F400740CD2A9F1300037
:1010600010F0FF0088F8000002D10099884509D9E6
:1010700008F1010806E0E00501D51E4801E042F252
:101080000F708246B96912986D1C88478146139883
:101090000560002E04DD484601F069FA0028D6D12B
:1010A000F96912988847FF2053468BF8000088F8AA
:1010B000000000200A900B9004AA0CA90AA8FFF7D0
:1010C000ADFDA00502D46FF00100F8E614F0240F86
:1010D00012D0E0071CD13868DDE90A12031D3B601D
:1010E0000068C0E9001213E0E0270000D2270000EA
:1010F00096260000F1D8FFFF0AA9684601F024FAFD
:10110000E00705D13868009A011D39600068026067
:101110002846D4E601491820ABBEFEE726000200AF
:101120002DE9FF4F1F464FF03C0987B04FF00042BA
:10113000DDE9141001F10108DDF858A002EA405081
:101140000390002005908346054604460490B96943
:10115000461E08988847AAF1010A0290BAF1000FCA
:101160003BDD02982E2815D0102100F017FA002838
:101170002EDB4FF0010B0599014317D0B9F1000F99
:101180000BDB4A46C11700F0F6F905430C43A9F101
:10119000040905E0012004900BE008B145F00105C9
:1011A00001200590049820B9361D02E0049800B192
:1011B000361FB969089808F101088847BBF1000F8C
:1011C000AAF1010A0290C9D00999C1F80080C5E7C7
:1011D0000298702808D0502806D0F96908988847E6
:1011E000BBF1000F14D04FE0002002900120BBF1B2
:1011F000000F049009D0B969089808F101088847E0
:10120000AAF10109B9F1000F07DCF96908988847CC
:101210006FF001000BB0BDE8F08F2B2804D02D2813
:101220000CD14FF0FF300490B969089808F101081B
:101230008847A9F10109B9F1000FE6DD411CE4D0AE
:101240000A2100F0ABF90028DFDB029908F1010860
:1012500001EB810100EB41000290B96908988847D1
:101260000A2100F09BF9099AA9F10109B9F1000FCF
:10127000C2F8008001DD0028E7DAF969089888479C
:101280000499029800FB016655EA040004D004F0BA
:101290004041090002D006E0039898E0A40044EA27
:1012A0009574AD00B61E04F00041080002D16D191E
:1012B0006441761E159810F0240F03D04FF00B09EF
:1012C0005C4803E04FF028096FF07D0082465645E8
:1012D00007DAAAEB06018944B9F1410F01DD4FF0AD
:1012E000410901200021A9F1010200F044F9024660
:1012F00028400B462140084301D0012100E0002195
:10130000501E029143F1FF3128402140084301D093
:10131000012000E000200299834651EA0B014FD0E2
:10132000002108464FF00000039900F4400039B155
:1013300000EB80004FF4400100EBD07001EA600048
:101340008015012802DD4FF0FF3000E013D0401C73
:1013500036D0029860B3BBF1000F0CD14A46012091
:10136000002100F008F928402140084301D0012065
:1013700000E00020E0B101204A46002100F0FBF827
:10138000034640190A4661412D1A8C4111D3B9F127
:10139000400F09DD159810F0240F02D0AAF1340691
:1013A00003E0AAF1170600E0761C00254FF0004488
:1013B00006E05B1E42F1FF3220EA030521EA020447
:1013C000CAF10100B04206DA1B49039808430190B4
:1013D000002000900EE0039AC4F3D321E80A0A43E8
:1013E000164940EA44500A433146CDE900026846B6
:1013F00001F0B3F8159810F0240F0BD01598C00722
:1014000015D13868DDE90012031D3B600068C0E9B2
:1014100000120CE002A8694601F096F81598C00782
:1014200005D13868029A011D3960006802604046A3
:10143000F0E6000002FCFFFF0000F07F0000F03F3C
:101440002DE9FF4F92461D4685B04FF00041DDE982
:10145000124BDDE914727F1E01EA4B50414940F006
:10146000FF4940EA0108002122F0200049280491A8
:1014700002D04E2828D04CE03BA0012607C88DE8BA
:101480000700A9690698641C88477F1E014606D498
:101490001DF8060018B121F0200181420BD0E96946
:1014A00006988847032E34D0082E32D06FF0010002
:1014B00009B0BDE8F08F761C032E01D0082EE0D1D4
:1014C000601CCAF80000DCE7A9690698641C88471C
:1014D0007F1E2AD420F02000412826D1A969069831
:1014E000641C88477F1E20D420F020004E281CD189
:1014F000A9690698641C88477F1E48F4002849F4AF
:101500008009CAF8004001D4282806D0E969069865
:1015100088475FEACB7012D022E0A9690698641C64
:1015200088477F1E01D4002803DAE96906988847B6
:10153000BCE72928F1D1641CCAF80040E9E71BF098
:10154000240F07D028680499031D2B600068C0E9A8
:10155000001805E02868021D2A600068C0F80090A5
:101560002046A5E70000F07F494E46494E495459B0
:10157000000000007047B2F120030AD5C2F1200339
:1015800001FA02F120FA03F300FA02F041EA030142
:10159000704700FA03F14FF0000070473A2800D27C
:1015A000303820F02002412A01D3A2F137008842CE
:1015B00001D34FF0FF3070475FEA400C08BF91F055
:1015C000000F4FEA8C234FEAC12243EA51514FEA00
:1015D0001C5018BF00F5F0404FEA300018BF41F032
:1015E00000415FEA6C5C00F02980BCF1FF3F08BF5E
:1015F00040F080407047130C06BF12044FF0100CEF
:101600004FF0000C130E04BF12020CF1080C130F64
:1016100004BF12010CF1040C930F04BF92000CF1F3
:10162000020CD30F04BF52000CF1010C11464FF015
:101630000002A0F11F00A0EB0C00704711F0004F5A
:1016400008BF704731F000413FF4D5AF0B0C06BF27
:1016500009044FF0100C4FF0000C0B0E04BF0902F0
:101660000CF1080C0B0F04BF09010CF1040C8B0FDB
:1016700004BF89000CF1020CCB0F04BF49000CF130
:10168000010CCCF12003A0EB0C0022FA03F302FAC8
:101690000CF241EA030100F10100704720F07F4C99
:1016A00080EA030023F07F47ACEB070303F57C538C
:1016B00000F0004003F1FF032DE980494FEA154B8C
:1016C00009B44FEA144325EA0B4E24EA03480FF20B
:1016D000042606EB132749083E785FEA320203FB33
:1016E0000667C7F5000707FB06F64FEA54374FEACF
:1016F000D64606F1020607FB066CCCF1005C4FEA09
:101700001C472CEA074C07FB06F40CFB06F504EB20
:1017100015464FEA961634BF00204FF000404FEABE
:10172000D13706FB07FC4FEA1C4C0CFB0BF7D21B16
:1017300003FB0CF761EB07010CFB0EF7B0EB074066
:1017400072EB17420CFB08F734BFA2EB0742B2EB77
:10175000074261EB17414FEA0C444FEA910706FB41
:1017600007FC4FEA1C4C0CFB0BF7B0EBC74072EBCD
:10177000573203FB0CF734BFA2EBC742B2EBC742B0
:1017800061EB57310CFB0EF7B0EBC70072EB5772F1
:101790000CFB08F734BFA2EBC702B2EBC70261EB48
:1017A0005771039F4FEA816141EA921104EBCC0427
:1017B0004FEAD1374FEA826206FB07FC42EA9012F9
:1017C0004FEA80604FEA1C4C0CFB0BF7D21B03FB6B
:1017D0000CF761EB07010CFB0EF7B0EB074072EB67
:1017E00017420CFB08F734BFA2EB0742B2EB0742EB
:1017F00061EB17414FEA8C554FEA910704EB9C24AB
:1018000006FB07FC4FEA1C4C0CFB0BF7B0EBC74088
:1018100072EB573203FB0CF734BFA2EBC742B2EBBB
:10182000C74261EB57310CFB0EF7B0EBC70072EB10
:1018300057720CFB08F734BFA2EBC702B2EBC7022A
:1018400061EB577115EB4C254FEA816141EA92112A
:101850004FEA82624FEAD13742EA901206FB07FC58
:1018600044F100044FEA80604FEA1C4C0CFB0BF77C
:10187000D21B03FB0CF761EB07010CFB0EF7B0EB7F
:10188000074072EB17420CFB08F734BFA2EB07428C
:10189000B2EB074261EB174115EB1C154FEA8131A2
:1018A00041EA92414FEA823242EA90424FEA803066
:1018B0004FEA0C7644F1000448EA03434EEA0B4831
:1018C0004FF0000EB2EB080C71EB030724BF624629
:1018D00039464EEB0E0E4FF0000B001852414941B5
:1018E0004BEB0B0BB2EB080C71EB03077BF1000B1E
:1018F00024BF624639464EEB0E0E4FF0000B001827
:10190000524149414BEB0B0BB2EB080C71EB030757
:101910007BF1000B24BF624639464EEB0E0E51EAB6
:10192000020718BF46F0010616EB0E7655F10002CD
:1019300054F1000103D5BDE88901BDE80088BDE888
:101940008901BDE80048B619524141EB0101A3F1FC
:101950000103704780807F7E7D7C7B7A7978777603
:1019600076757473727171706F6E6E6D6C6C6B6A7C
:101970006A6968686766666564646363626161601A
:10198000605F5F5E5E5D5D5C5C5B5B5A5A59595897
:101990005857575656555555545453535252525101
:1019A000515050504F4F4F4E4E4D4D4D4C4C4C4B57
:1019B0004B4B4A4A4A49494948484847474747469E
:1019C00046464545454444444443434343424242DA
:1019D0004241414146EA0646A3F570534FEA164696
:1019E00046EA42564FEAD22242EA415210B54FEA45
:1019F000D121A3F1010300F02FF820F0004000F105
:101A0000020C00F0004701EB00501146BCF5006FDE
:101A100040EA070000D210BDBAF1000F0AD01CB591
:101A200003B44FF004004FF004014FF000000FBC6E
:101A3000BDE810404FF00001BBF1010FB9BF0448F1
:101A40004FF0FF310348002140EA070010BD00BFFE
:101A5000FFFFEF7F0000F07F002B9C4630D4770023
:101A60002BD01CB54FEA370703B44FF010004FF0EE
:101A70001001BAF1000F06D0BCF1000FDCBF40F03E
:101A8000080040F008014FF000000FBCBDE8104016
:101A90000BF1010BBBF1010F08BF5FEA170722BF73
:101AA00012F1010211F101014FF0004143F1000375
:101AB00000F0004043EA00007047F9D35708D0E730
:101AC00046EA064613F1400F4FEA16461FDD13F1B2
:101AD000200FDFBF16430A46002120335B42BED0F1
:101AE000C3F1200746EA064602FA07F74FEA164610
:101AF00046EA0706C3F1200722FA03F201FA07F7C4
:101B000021FA03F14FF0000342EA0702A7E746EA91
:101B1000020646EA06464FEA164646EA0106BCBFFA
:101B200046EA0646360C4FF000034FF000024FF035
:101B3000000194E72DE9804C9A46934670B491E8F1
:101B4000380007C831EA400C48BF34EA430C03D5DB
:101B5000FFF7A4FDFFF780FFF0BCBDE8008C2DE986
:101B6000804C9A46934670B491E8380007C831EA31
:101B7000400C48BF34EA430C03D5FFF78FFDFFF755
:101B800029FFF0BCBDE8008C2DE9804C9A469346B5
:101B900070B491E8380007C810F0804F08BF13F008
:101BA000804F03D100F01AF8FFF756FFF0BCBDE8F4
:101BB000008C2DE9804C9A46934670B491E8380029
:101BC00007C810F0804F08BF13F0804F03D100F01A
:101BD00005F8FFF7FFFEF0BCBDE8008C20F07F4762
:101BE00080EA030023F07F4C07EB0C03A3F57C5342
:101BF00000F00040A3F1FE0392F0000F00F0B3806C
:101C000095F0000F00F077802DE901494FEA11406F
:101C10004FEA144621EA004800FB06FC24EA064786
:101C200008FB06F607FB08F800FB07F718EB064869
:101C30004CEB164C4FEA124B18EB07484FEA15468F
:101C40004CEB174022EA0B4E0BFB06FC25EA06473D
:101C50000EFB06F607FB0EFE0BFB07F71EEB064E10
:101C60004CEB164C4FF000061EEB074E4CEB174B9F
:101C700018EB0B0840F1000018EB0E0B58EB0008B6
:101C800040F100008F1A4FF000013CBFC943661BB2
:101C900014BFB5EB040C00213CBFC943F61B4FEA4F
:101CA00017444EEA8E0E27EA04454FEA1C4704FB10
:101CB00007622CEA074C05FB07F70CFB05F604FB53
:101CC0000CFC16EB074642EB174216EB0C4642EBB8
:101CD0001C421BEB060658EB0202414146EA9E06F7
:101CE00001D5BDE80189B619524141EB0101A3F1CB
:101CF0000103BDE801894FEA14454FEA114724EA80
:101D0000054621EA074C05FB07F406FB07F70CFB29
:101D100006F105FB0CFC11EB074144EB17444FEABD
:101D2000124711EB0C4144EB1C4422EA074C05FB23
:101D300007F206FB07F70CFB06F605FB0CFC16EB9F
:101D4000074642EB174216EB0C4642EB1C456A185D
:101D500054F1000148BF7047B619524141EB0101EF
:101D6000A3F10103704795F0000F37D04FEA1142FD
:101D70004FEA144721EA024624EA074C02FB07F126
:101D800006FB07F70CFB06F402FB0CFC14EB074404
:101D900041EB17414FEA154714EB0C4441EB1C4152
:101DA00025EA074C02FB07F506FB07F70CFB06F6D6
:101DB00002FB0CFC16EB074645EB174516EB0C46F1
:101DC00045EB1C42121951F1000148BF7047B6198A
:101DD000524141EB0101A3F1010370474FEA144561
:101DE0004FEA114724EA054621EA074C05FB07F1B3
:101DF00006FB07F70CFB06F24FF0000605FB0CFC98
:101E000012EB074241EB174112EB0C4251EB1C4124
:101E100048BF7047921841EB0101A3F101037047DD
:101E200010B50748006840F01E00054908600A2008
:101E300000F012F80248001F006800F0E00010BD3A
:101E40000C18014000BFFEE70020014908707047F0
:101E5000300000207047000010B5044600210548FE
:101E600000F0D7FE00BF034800F0D0FEA042FAD336
:101E700010BD000000140040002114E00C4810F8D0
:101E800011000C4A128890420BD1094800EB410026
:101E90004078094A10800120084A1070084A1070E2
:101EA0007047481CC1B20C29E8DB0020F8E70000AD
:101EB000320000202C0000202E00002030000020E6
:101EC000310000200548007828B10020034908703F
:101ED0000348007870470020FCE700003100002034
:101EE0002E00002000BFFEE7094800684FF6E171B0
:101EF0000840074908600020064908700649088024
:101F000006490880064908700649087070470000B5
:101F10000C1801402A0000202C0000202E00002078
:101F2000300000203100002010B5012000F004F83E
:101F30000220FFF791FF10BD10B504461021104894
:101F400000F0B0FC00F05EFC201100F0D1F8082198
:101F50000B4800F0A9FC00F055FC0821084800F0EF
:101F6000A1FC204600F0C4F80821054800F09CFCC4
:101F700000F048FC0821024800F094FC10BD00006D
:101F80000014014010B504461021104800F08CFCEC
:101F900000F038FC201100F0ABF808210B4800F0ED
:101FA00083FC00F02FFC0821084800F07BFC204651
:101FB00000F09EF80821054800F076FC00F022FCB5
:101FC0000821024800F06EFC10BD00000014014022
:101FD00010B52820FFF740FF10212A4800F062FCCE
:101FE00000F010FC032000F083F80821254800F0E1
:101FF0005BFC00F007FC0821224800F053FC0120A4
:10200000FFF72AFF032000F073F808211D4800F0B5
:102010004BFC00F0F7FB08211A4800F043FC0120BC
:10202000FFF71AFF032000F063F80821154800F0BD
:102030003BFC00F0E7FB0821124800F033FC0120D4
:10204000FFF70AFF2820FFF777FF0220FFF704FFC2
:102050000F20FFF771FF0220FFF7FEFE0120FFF7C0
:102060006BFF0220FFF7F8FE0620FFF765FF022056
:10207000FFF7F2FE0220FFF75FFF0220FFF7ECFE02
:1020800010BD00000014014010B5044624B12046E4
:10209000FFF778FF00F0B6FB10BD70B504460D46A3
:1020A00015B1012D13D107E044F08000FFF744FF84
:1020B0000120FFF7D1FE0AE004F14001C9B241F06E
:1020C0008000FFF739FF0120FFF7C6FE00BF00BF09
:1020D00070BD70B50446002506E0605DFFF752FF55
:1020E00000F090FB681CC5B2605D0028F5D170BDA2
:1020F00010B50446C4F3C00028B14FF480711748EE
:1021000000F0D2FB04E04FF48071144800F0CAFBE9
:10211000C4F3800020B18021104800F0C5FB03E02B
:1021200080210E4800F0BEFBC4F3400020B14021E6
:102130000A4800F0B9FB03E04021084800F0B2FB78
:1021400004F0010020B12021044800F0ADFB03E0C1
:102150002021024800F0A6FB10BD00000014014041
:1021600000BFFEE7704770477047000010B50C488D
:1021700000684FF6E17108400A49097801F01E0134
:102180000843074908600A20FFF766FE0448001F5D
:10219000006804490978084000F0E00010BD000024
:1021A0000C1801402C00002010B5022423E0144834
:1021B00000684FF6E17108402043114908600A2089
:1021C000FFF74AFE0E48001F006800F0E00070B103
:1021D0000B48001F006800F0E0000A49088008482A
:1021E000006800F01E0009880843064908804FF681
:1021F000FF7000EA440404F01E000028D7D110BD8F
:102200000C1801402C00002010B51B48007830B19C
:1022100001280DD0022818D003282AD11CE0FFF78E
:10222000FFFD20B1FFF7C0FF01201349087021E036
:10223000FFF79CFF28B1FFF71FFE02200E49087030
:1022400002E000200C49087014E0FFF78FFF10B97E
:102250000320094908700DE0FFF788FF18B102203C
:102260000549087004E0FFF7EFFD002002490870FF
:1022700000E000BF00BF10BD2A0000201848006821
:1022800040F47000164908601648006820F001000C
:10229000401C1449086000BF12480068C0F34000A9
:1022A0000028F9D00F48406820F003000D4948602D
:1022B00000BF0C484068C0F381000028F9D10948EC
:1022C0000068094908400749086000204860086321
:1022D0004FF41F008860C8030149803908607047C7
:1022E00088ED00E000100240FFFFF2FE00BFFEE7B5
:1022F00003B401984100009850EAC12018BF04209F
:102300004A0D18BF40F0010040F2FF72B2EB515F7E
:1023100008BF40F00200012808BF052002B0704746
:1023200030B52DED048B81B0B0EE408AF0EE608ABE
:102330006A4651EC180B00F06FFA00989FED329B43
:102340007E300090002821DC53EC192B51EC180B47
:1023500000F0BEFD1AD0002140F608004FF000004A
:10236000044651EC180B00F06DFD08EE100A40F623
:10237000080004EA00014FF00000B5EEC08AF1EE5B
:1023800010FA04BF0220FEF7C5FB2DE00098FF28DD
:1023900030DB002108464FF0000000F4400553EC0C
:1023A000192B51EC180B00F009FF8CBF00240124FD
:1023B0000220FEF7AFFB9FED168A4DB1002C0CBF3B
:1023C0004FF400004FF48000A84218BF9FED118A1F
:1023D000042108464FF00000002C01BFB1EE480A6E
:1023E00001B0BDEC048B30BDB0EE480A01B0BDECCD
:1023F000048B30BD51EC180B00F024FD01B000EE51
:10240000100ABDEC048B30BD00000000000000008D
:102410000000807FFFFF7F7F30B540F2FF742DED1D
:10242000048BF0EE608A18EE901A85B0B0EE408A08
:102430009FED2B9B05468DED008B34EA115147D063
:1024400053EC192B51EC180B00F042FD40D02A46FA
:1024500051EC180B00F09AFF41EC180B18EE900AA3
:102460008DED008B34EA10501CD053EC192B51EC3D
:10247000180B00F02DFD2BD10220FEF74BFB00F0D6
:1024800053F810EE901A18EE900A8DED020B8DEDB8
:10249000008B61F31E0003909DED020B05B0BDECB7
:1024A000048B30BD0220FEF735FB00F02DF810EE56
:1024B000901A18EE900A8DED020B8DED008B61F3F2
:1024C0001E0003909DED020B05B0BDEC048B30BDEA
:1024D00005B0B0EE480AF0EE680ABDEC048B30BDE2
:1024E000000000000000000008B59FED060A0A4643
:1024F00001468DED000A6846FEF783F99DED000A5E
:1025000008BD0000000000009FED050B10B553EC66
:10251000102B51EC100B00F053FD41EC100B10BDD3
:1025200000000000000000709FED050B10B553EC9B
:10253000102B51EC100B00F043FD41EC100B10BDC3
:10254000000000000000001010B5044691ED000BE3
:10255000FFF7E6FE84ED000A10BD10B5044690EDCD
:10256000000B0846FFF758FF84ED000B10BD303814
:102570000A2801D2012070470020704703494968AA
:1025800060F30711014A51607047000000100240DB
:102590000349496860F30A21014A5160704700000D
:1025A000001002400349496860F3CD21014A51609F
:1025B0007047000000100240012807D10749496D0B
:1025C00021F030013031054A516505E00349496D7C
:1025D00021F03001014A51657047000000100240AF
:1025E000052827D2DFE800F0030A11181F00134A5C
:1025F000126861F30002114B1A601CE00F4A126866
:1026000061F310420D4B1A6015E00C4A126861F339
:1026100018620A4B1A600EE0084A126A61F300025F
:10262000064B1A6207E0054A526A61F30002034B47
:102630005A6200E000BF00BF704700000010024077
:1026400010B501460020094B03EB1142126801F05E
:102650001F040123A3401A4001F01F040123A340DB
:102660009A4200D000E0012010BD0000001002409E
:1026700030B50024002500E0641C1120FFF7E0FFC6
:10268000012802D0B4F5405FF6D31120FFF7D8FF40
:10269000012801D0002500E00125284630BD0000BA
:1026A00010B501290DD10E4B03EB1042126800F05A
:1026B0001F040123A3401A43094C04EB10431A6082
:1026C0000CE0074B03EB1042126800F01F040123DB
:1026D000A3409A43024C04EB10431A6010BD000063
:1026E0000010024010B568B91C4B5B6823F48033BE
:1026F0001A4C636023461B6B23F0007303F10073D5
:10270000236317E0154B5B6823F4803303F58033B4
:10271000124C6360012805D123465B6823F4003323
:10272000636007E00D4B5B6823F4003303F500336F
:102730000A4C6360094B5B6861F39543074C636027
:102740000C09064B5B6864F35E73044C63602346BC
:102750005B6862F3DF73636010BD0000001002402D
:102760001348006820F00100401C1149086000BFB8
:102770000F480068C0F340000028F9D00C484068BA
:1027800020F003000A49486000BF09484068C0F3D0
:1027900081000028F9D1064800680649084004492C
:1027A00008600020486008634FF41F00886070478D
:1027B00000100240FFFFF2FE0D49496860F301017D
:1027C0000B4A516000BF00BF00BF00BF00BF00BF89
:1027D00000BF00BF00BF00BF00BF00BF00BF00BF01
:1027E00000BF00BF00BF00BF00BF00BF70470000B8
:1027F0000010024002484068C0F3810070470000AA
:1028000000100240002001E0411C88B2B0F57A7F40
:10281000FADB70470000000010B582B01446CDE925
:1028200000010023009A2360194B21F000409842D8
:102830002ADA024328D0B0F5801FA8BF226810DA38
:102840009FED150B53EC102B9DED000B51EC100B75
:1028500000F0B6FBCDE900016FF0350221F0004039
:1028600022600F4B6FF31E5103EB20501044206089
:1028700041F0FF5040F0005001909DED000B00BF73
:1028800002B051EC100B10BD9DED000BF8E70000FD
:102890000000F07F00000000000000000000504336
:1028A00002FCFFFF41617047016170474FF6FF7105
:1028B0000160002181710171042141710121C17107
:1028C0007047F0B50A461588ABB29579032D01D152
:1028D00000241AE0957965B9557905F00F0455790A
:1028E000182D01D1036110E05579282D0DD14361D8
:1028F0000BE0957905F00805167906F004063543D6
:10290000D67906F0030645EA0604DDB2A5B100213A
:1029100010E001258D401D405DB105688F000F2638
:10292000BE40B543056005688E0004FA06F63543DF
:102930000560491C0829ECD3FF2B15DD1B12002173
:1029400010E001258D401D405DB145688F000F26C8
:10295000BE40B543456045688E0004FA06F635432F
:102960004560491C0829ECD3F0BD0000F0B50C46C9
:10297000104F07EB1062C0F30741C0F30725C6B242
:10298000C5F12007A7EB010C4FF0FF3707FA0CF356
:10299000C5F120077F1AFB40CB408B4017689F434F
:1029A00017602CB106FA01FC176847EA0C0717609C
:1029B000F0BD0000000001402DED028B00F0AAF9EF
:1029C00000F08AF900F036F900F080F900F0EEF935
:1029D00000F038F963E03248007820B1012813D0C4
:1029E00002285BD131E0FFF7F3FAFFF79DFA2D489B
:1029F000FFF76FFB01210020FFF74FFBFFF774FA91
:102A000001202749087049E0FFF7FEFBFFF75AFA5B
:102A10002549087008460078232803D10220204960
:102A2000087011E020480078FFF72EFB1E4803785D
:102A30001E4A1FA11046FDF72DFC1F491B48FFF73A
:102A400053FD1E4880ED000A28E0FFF76DFA174895
:102A5000FFF73FFB01210020FFF71FFB174890ED18
:102A6000000AF3EE070AB4EEE00AF1EE10FA11DD07
:102A700013A0FFF72EFB1148006800F0D5FB41ECD6
:102A8000180B53EC182B0FA10648FDF703FC054863
:102A9000FFF71FFB01200249087000BF00BF9AE743
:102AA0000D000020000000200E000020500000203B
:102AB0002573256300000000100000201400002092
:102AC000596573002566000000BF00F00702064B41
:102AD00019684FF6FF031940044B0B4343EA0221E8
:102AE000014B196000BF70470CED00E00000FA05D3
:102AF0002DE9F0470026002400250027A046A14626
:102B0000FFF778FE8246BAF1000F06D0BAF1010F46
:102B100015D0BAF1020F46D115E02D48406DC0F333
:102B2000402040B12A48006BC0F3406018B12948EA
:102B30002949086002E029482749086037E027480A
:102B40002549086033E022484068C0F30047204828
:102B50004068C0F383441E484068C0F341750DB916
:102B60000F2C03D12801401C044400E0A41C27B909
:102B70001B4860431849086014E015484068C0F3DA
:102B8000404058B11248406DC0F30136B01C1349A3
:102B9000B1FBF0F060431049086003E00F48604368
:102BA0000D49086003E00D480B49086000BF00BFF5
:102BB00007484068C0F303180A4810F80890064810
:102BC000006820FA09F004490860BDE8F0870000B9
:102BD00000100240006CDC024C00002000127A0061
:102BE00000093D0024340008C1628262436923F079
:102BF00001035B1C43617047026861F306120260C7
:102C00007047026861F30002026070470146486A3B
:102C1000704741627047026861F341020260704789
:102C2000026861F3C71202607047426861F30612DE
:102C30004260704710B501210148FFF797FE10BDB3
:102C4000020310301CB56846FFF730FE00208DF8F7
:102C50000600E020009004208DF805006946194820
:102C6000FFF72FFE1E211748FFF71CFE4FF47E7161
:102C70001548FFF717FE02208DF8070000208DF899
:102C8000040010208DF806001E20009004208DF80E
:102C9000050069460B48FFF714FE02208DF8070077
:102CA00000208DF8040010208DF806004FF47E708F
:102CB000009004208DF8050069460348FFF701FEE7
:102CC0001CBD0000001801400014014010B5032095
:102CD000FFF7FAFE10BD000010B501214FF4C0103F
:102CE000FFF7DEFC01210948FFF7DAFC0121074864
:102CF000C01CFFF7D5FC01210448001DFFF7D0FCE4
:102D000001210348FFF7CCFC10BD000002001800B1
:102D100005001C0010B5FFF723FD01210420FFF77B
:102D20005FFC00BF2048FFF78BFC0128FAD101218E
:102D30000846FFF755FC00BFFFF79AFC0028FBD0C0
:102D400001210020FFF74CFC00BF0120FFF778FCB9
:102D50000128FAD101221D211046FFF7C3FC0121F1
:102D60000220FFF73DFC00BF1920FFF769FC012896
:102D7000FAD10020FFF702FC0420FFF713FC062025
:102D8000FFF706FC0120FFF717FC0220FFF714FDF8
:102D900000BFFFF72FFD0228FBD10020FFF70CFC3E
:102DA000FFF7A6FE10BD00000100240010B54EF68E
:102DB00060224FF6E8510C48FFF716FF00210A4841
:102DC000FFF71AFF00210848FFF72AFF00210648F5
:102DD000FFF72BFF01210448FFF71DFF01210248E7
:102DE000FFF70FFF10BD00000014004010B50029D0
:102DF0000AD00878002807D005487844FDF7C2FEBD
:102E0000002801D0002010BD0248784410BD000009
:102E1000FE060000F606000010B500290AD008786A
:102E2000002807D005487844FDF7ACFE002801D003
:102E3000002010BD0248784410BD0000EE060000DE
:102E4000E606000021F00042A2F16052B2F5801FB8
:102E500001F0004328BFD2F17F6C0BD95FEA001C60
:102E600043EAC20242EB507018BF704728BF20F0FF
:102E700001007047B2F5801FBCBF184670474FEA8B
:102E8000410C1CF5001F02D2084600F043BA70B591
:102E900000F040F900000089FFF7F6BF4FF0004056
:102EA000A0F580007047000002494FF0000000F0DC
:102EB0003BBA00BF0000F87F491058BFC1F1404144
:102EC0005B1058BFC3F140438B42EFF30080704763
:102ED00051EA030C17D41CF5801F58BFBCF5801FA6
:102EE00000F10680994218BF704708BF90427047B2
:102EF00007D711F5801F58BF13F5801F19D49942C9
:102F00007047894270471CF5801F08D5BCF5801FAB
:102F1000F7D58B4218BF704708BF824270474FF405
:102F2000001C1CEB410F38BF1CEB430F01D28B423E
:102F3000704770B500F0EEF8922449004FF0005150
:102F40004FF08053FFF7B8BF51EA030C17D41CF5BC
:102F5000801F58BFBCF5801F00F10680994218BF42
:102F6000704708BF9042704707D711F5801F58BFC0
:102F700013F5801F19D499427047894270471CF598
:102F8000801F08D5BCF5801FF7D58B4218BF70474E
:102F900008BF824270474FF4001C1CEB410F38BF42
:102FA0001CEB430F01D28B42704770B500F0B2F8B2
:102FB000922449004FF000514FF08053FFF77CBF3F
:102FC000DFF848C170B51CEA111E1EBF1CEA1315BC
:102FD0009EEA0C0F95EA0C0F00F06F8081EA030463
:102FE00023EA4C134EEAD47E21EA4C1141F48011BD
:102FF00043F48013AE44A1FB024CA0FB0365AEF189
:103000007F7E361955EB0C05A1FB034C4CF10003F8
:10301000A0FB021C16EB0C06654153F100030942AC
:1030200018BF46F0010613F4007F0BD14FEA0331BD
:103030004FEA0530340341EA155140EA16506FF06B
:1030400003020AE04FEAC3214FEAC520F40241EA35
:10305000555140EA56506FF0020202EB2E4201EB4E
:10306000025585EACE710AD05FEA440C18BF24F0FD
:10307000004450F1000041F1000120EAD47040F218
:10308000FE7C624500D270BDA84214BF4FF0804460
:103090004FF04044002E08BF0024BEF1806FA8BF4F
:1030A000A1F1C041BDE8704080F282804FF0000085
:1030B00001F1C04101F0004170479EEA0C0F0CEA9B
:1030C000131518BF95EA0C0F06D04FF0000081EAE7
:1030D000030E0EF0004170BD00F01CF88900013EA7
:1030E00000F007B800F009B84FEA430C5FEA5C5CF7
:1030F00008D081EA030100F05BB84FEA410C5FEAB7
:103100005C5CF6D14FF00000014970470000FF07FA
:103110000000F87F0EF1020E2EF0030E5EF8046B35
:10312000364205D4012A43EB030515F5001F12D8DA
:10313000012841EB010C1CF5001F0CD80ED14FEA01
:10314000D17C15F5001F0CEB4C0C0CF1020C08BFE8
:103150004CEBD37C04E04FF0080C01E04FEAD37C49
:103160000CEB4C0526FA05F606F00706B6F1040C42
:1031700006D20EEB860CBDE870404CF0010C6047A7
:10318000DFE80CF0090B02024FF000414FF00000A5
:10319000A1F5002170BD19461046012851EB01042C
:1031A00018BFD4F5001484BF002001F0004170BDA9
:1031B0000808A0F500114FEA3101704753EA010CED
:1031C00017D41CF5801F58BFBCF5801F00F1068086
:1031D0008B4218BF704708BF8242704707D713F56C
:1031E000801F58BF11F5801F19D48B4270479B4236
:1031F00070471CF5801F08D5BCF5801FF7D5994294
:1032000018BF704708BF904270474FF4001C1CEB7A
:10321000430F38BF1CEB410F01D2994270470FB4E6
:103220000CBC03BCFFF7C1BE43004FEAD30C4FEA0E
:103230003C0C43401FBF40070CF1605113F0FE4FA0
:1032400070471CF0006F03D100200CF00041704764
:103250000CF0004343EA507010B540EACC0000F097
:103260000EF800BF000000924FEA0001FFF7A0BF78
:103270004FF000414FF00000A1F5002170470EF122
:10328000020E2EF0030E5EF8044B244204D44FEAE3
:103290004102B2F17F4F11D84FEA4003B3F17F4FA3
:1032A0000CD80ED14FEAD07CB2F17F4F0CEB4C0C16
:1032B0000CF1020C08BF4CEBD17C04E04FF0080C81
:1032C00001E04FEAD17C0CEB4C0324FA03F404F048
:1032D0000704B4F1040C06D20EEB840CBDE81040D8
:1032E0004CF0010C6047DFE80CF0070802024FF0D9
:1032F0000040A0F5800010BD0846420018BFD2F182
:10330000807288BF00F0004010BD4FF04070E1EEC9
:10331000100A7047FF2141EAD050C00570474FF0B6
:1033200000007047FDF703B90CF00F03092B08BF2D
:10333000082000F05F800A2B0BD0082B18BF7047C5
:1033400008BF1CF0400F0AD04FF000004FF0000102
:1033500070471CF0400F18BF4FF0004070471CF042
:10336000100F08D020F0704300F07F4242EAD301F2
:103370004FEA4370704700F0604021F07F4242EA1C
:10338000000201F07F4040EA727070474FF0FF0C7E
:103390004CF4E06C1CEA11531CBF9CEA030C9445EE
:1033A000C2BFDA4201EB02517047002B0DD0BCF1D5
:1033B000000F0FD0002A01F00041A4BF41F0E0410E
:1033C00041F07F614FF00000704701F000414FF085
:1033D0000000704750EA01334FF09B0C18BF4CF0CF
:1033E000806C7FF461AD7047FDF73EBDFDF798BE80
:1033F000FEF726B81CF4801F11D01CF4E02F03D078
:103400006FEACC31490070474FF04050EFF3008233
:1034100022F0704242EA000282F3008870474FF0C7
:1034200000007047000000000000000001020304DB
:103430000607080902400000000000A0000000008C
:1034400005400000000000C8000000000C40000023
:103450000000409C00000000194000000020BCBE9D
:103460000000000034400000BFC91B8E00000004B3
:10347000B5400000504BCFD06607E2CF01000000FE
:103480006C4100003E8251AADFEEA734010000002B
:10349000D9420000DCB5A0E23A301F97FFFFFFFFE2
:1034A000B4450000FD25A0C8E9A3C14FFFFFFFFF01
:1034B000FF3F00000000008000000000FF3F000010
:1034C00000000080000000002436000800000020FA
:1034D00050000000C00100087436000850000020B1
:1034E00078060000DC010008000000000000F07F0A
:1034F000FFFFFFFFFFFFEF7F1C0000004300000005
:10350000F8FFFFFF0C0000000E0000000F0000009D
:103510002E0000001001000043000000F8FFFFFF34
:1035200000404040404040404040414141414140D6
:10353000404040404040404040404040404040408B
:10354000400502020202020202020202020202021A
:10355000022020202020202020202002020202021F
:103560000202909090909090101010101010101077
:103570001010101010101010101010100202020283
:1035800002028888888888880808080808080808C7
:1035900008080808080808080808080802020202C3
:1035A00040000000000000000000000000000000DB
:1035B000000000000000000000000000000000000B
:1035C00000000000000000000000000000000000FB
:1035D00000000000000000000000000000000000EB
:1035E00000000000000000000000000000000000DB
:1035F00000000000000000000000000000000000CB
:1036000000000000000000000000000000000000BA
:1036100000000000000000000000000000000000AA
:1036200000000000456E7465722076616C75653A25
:1036300000000000000000000000000000004E65D7
:10364000787400000000000000000000000000008E
:10365000000000000000223142328233243444351D
:103660008436283748388839302E5030902300006F
:0436700000127A00CA
:040000050800018569
:00000001FF
