:020000040800F2
:100000009806002025020008ED08000809030008F2
:10001000E9080008E10200080D0B000800000000DC
:10002000000000000000000000000000F5080008CB
:10003000E502000800000000F10800083D02000889
:100040003F0200083F0200083F0200083F0200088C
:100050003F0200083F0200083F0200083F0200087C
:100060003F0200083F0200083F0200083F0200086C
:100070003F0200083F0200083F0200083F0200085C
:100080003F0200083F0200083F0200083F0200084C
:100090003F0200083F0200083F0200083F0200083C
:1000A0003F0200083F0200083F0200083F0200082C
:1000B0003F0200083F0200083F0200083F0200081C
:1000C0003F0200083F0200083F0200083F0200080C
:1000D0003F0200083F0200083F0200083F020008FC
:1000E0003F0200083F0200083F0200083F020008EC
:1000F0003F0200083F0200083F0200083F020008DC
:100100003F0200083F0200083F0200083F020008CB
:100110003F0200083F0200083F0200083F020008BB
:100120003F0200083F0200083F0200083F020008AB
:100130003F0200083F0200083F0200083F0200089B
:1001400000000000000000000000000000000000AF
:100150003F0200083F0200083F0200083F0200087B
:100160003F0200083F0200083F0200083F0200086B
:100170003F0200083F0200083F0200083F0200085B
:100180003F02000800F002F800F03CF80AA090E8F6
:10019000000C82448344AAF10107DA4501D100F042
:1001A00031F8AFF2090EBAE80F0013F0010F18BFD3
:1001B000FB1A43F0010318475410000074100000AC
:1001C000103A24BF78C878C1FAD8520724BF30C883
:1001D00030C144BF04680C60704700000023002455
:1001E00000250026103A28BF78C1FBD8520728BF47
:1001F00030C148BF0B6070471FB500F0F9FF1FBD4D
:1002000010B510BD00F031F81146FFF7F5FF00F012
:1002100035FE00F04FF803B4FFF7F2FF03BC00F027
:1002200057F800000948804709480047FEE7FEE705
:10023000FEE7FEE7FEE7FEE7FEE7FEE7FEE7FEE796
:1002400004480549054A064B70470000B10A0008FA
:1002500085010008980000209806002098020020E0
:1002600098020020704770477047754600F02CF8E0
:10027000AE4605006946534620F00700854618B093
:1002800020B5FFF7DDFFBDE820404FF000064FF03E
:1002900000074FF000084FF0000BAC46ACE8C00977
:1002A000ACE8C009ACE8C009ACE8C00921F007011E
:1002B0008D46704710B50446AFF300802046BDE878
:1002C0001040FFF7A8BF0000004870473000002032
:1002D00001491820ABBEFEE726000200704700006F
:1002E000FEE7000070470000B0B541F20045C4F2DF
:1002F000000504462846002100F08EFE284600F046
:1003000089FEA042FAD3B0BDFEE7000010B541F26D
:100310000044C4F201042046102100F021FD2046D3
:100320004FF4807100F01CFD2046802100F018FD84
:100330002046402100F014FD2046202100F010FD51
:100340002046082100F00EFD2046082100F008FD9F
:1003500020464FF4807100F003FD2046802100F01C
:10036000FFFC2046402100F0FBFC2046202100F04D
:10037000F9FC2046082100F0F5FC2046082100F099
:10038000EFFCA4F580342046002100F045FE00BFBC
:10039000204600F03FFE0228FAD310BDB0B541F26E
:1003A0000045C4F20105A5F580342046002100F087
:1003B00033FE00BF204600F02DFE2828FAD3284641
:1003C000102100F0CDFC28464FF4807100F0C8FCED
:1003D0002846802100F0C4FC2846402100F0C2FCE1
:1003E0002846202100F0BEFC2846082100F0BAFC77
:1003F0002846082100F0B4FC2046002100F00CFE45
:10040000204600F007FE0028FAD028464FF48071FD
:1004100000F0A6FC2846802100F0A2FC28464021DE
:1004200000F0A0FC2846202100F09CFC2846082172
:1004300000F098FC2846082100F092FC204600219C
:1004400000F0EAFD204600F0E5FD0028FAD028463D
:100450004FF4807100F084FC2846802100F080FC7D
:100460002846402100F07EFC2846202100F07AFC3E
:100470002846082100F076FC2846082100F070FC90
:100480002046002100F0C8FD204600F0C3FD0028F2
:10049000FAD02846102100F063FC28464FF4807102
:1004A00000F05EFC2846802100F05AFC28464021DE
:1004B00000F058FC2846202100F052FC2846082174
:1004C00000F050FC2846082100F04AFC28464FF472
:1004D000807100F047FC2846802100F041FC28464E
:1004E000402100F03DFC2846202100F039FC284640
:1004F000082100F037FC2846082100F031FC204696
:10050000002100F089FD00BF204600F083FD022895
:10051000FAD32846102100F023FC28464FF48071BE
:1005200000F01EFC2846802100F01AFC28464021DD
:1005300000F016FC2846202100F012FC2846082175
:1005400000F010FC2846082100F00AFC28464FF471
:10055000807100F007FC2846802100F003FC28464B
:10056000402100F0FFFB2846202100F0FBFB28463D
:10057000082100F0F7FB2846082100F0F1FB204697
:10058000002100F049FD00BF204600F043FD022895
:10059000FAD32846102100F0E3FB28464FF480717F
:1005A00000F0DEFB2846802100F0DAFB28464021DF
:1005B00000F0D6FB2846202100F0D2FB2846082177
:1005C00000F0D0FB2846082100F0CAFB28464FF473
:1005D000807100F0C5FB2846802100F0C1FB284651
:1005E000402100F0BDFB2846202100F0BBFB28463F
:1005F000082100F0B7FB2846082100F0B1FB204697
:10060000002100F009FD00BF204600F003FD022894
:10061000FAD32846102100F0A3FB28464FF480713E
:1006200000F09EFB2846802100F09AFB28464021DE
:1006300000F096FB2846202100F092FB2846082176
:1006400000F090FB2846082100F08AFB28464FF472
:10065000807100F085FB2846802100F083FB28464E
:10066000402100F07FFB2846202100F079FB28463E
:10067000082100F077FB2846082100F071FB204696
:10068000002100F0C9FC00BF204600F0C3FC022896
:10069000FAD32846102100F063FB28464FF48071FE
:1006A00000F05EFB2846802100F05AFB28464021DE
:1006B00000F056FB2846202100F052FB2846082176
:1006C00000F050FB2846082100F04AFB28464FF472
:1006D000807100F045FB2846802100F041FB284650
:1006E000402100F03FFB2846202100F039FB28463E
:1006F000082100F037FB2846082100F031FB204696
:10070000002100F089FC00BF204600F083FC022895
:10071000FAD3B0BD002808BF7047B0B541F200441D
:10072000C4F2010405462046102100F01BFB2809F5
:1007300000F0A2F82046082100F014FB2046082112
:1007400000F00EFB284600F097F82046082100F044
:1007500009FB20460821BDE8B04000F001BB0000C5
:10076000B0B501292ED0002918BFB0BD41F2004418
:10077000C4F2010440F080052046102100F0F0FA98
:10078000280900F079F82046082100F0EBFA20460D
:10079000082100F0E5FA284600F06EF8204608210E
:1007A00000F0E0FA2046082100F0DAFAA4F58034DF
:1007B0002046002100F030FC204600F02BFC0028F1
:1007C000FAD02CE041F200444030C4F2010440F081
:1007D0008000C5B22046102100F0C2FA280900F0BE
:1007E0004BF82046082100F0BDFA2046082100F011
:1007F000B7FA284600F040F82046082100F0B2FA87
:100800002046082100F0ACFAA4F5803420460021EF
:1008100000F002FC204600F0FDFB0028FAD0B0BD3D
:10082000F0B581B006782EB341F2004504460027AA
:10083000C4F201052846102100F094FAF6B23009FE
:1008400000F01AF82846082100F08CFA2846082102
:1008500000F086FA304600F00FF82846082100F034
:1008600081FA2846082100F07BFA0137F8B2265CAD
:10087000002EDFD101B0F0BDB0B541F20044054615
:100880000007C4F2010420464FF4807115D400F033
:1008900067FA680715D52046802100F063FAA8079B
:1008A00015D52046402100F05DFAE80715D0204616
:1008B0002021BDE8B04000F055BA00F053FA6807B7
:1008C000E9D42046802100F04BFAA807E9D420465D
:1008D000402100F045FAE807E9D120462021BDE893
:1008E000B04000F03DBA0000FEE700007047000095
:1008F00070470000704700002DE9F04F81B040F2D2
:100900009408C2F2000898F80000032800F28B80D7
:10091000DFE800F002476F8C41F60C06C4F20106D6
:10092000306841F6080740F01E00C4F2010730604D
:10093000386810F0E00F76D040F2900B02254FF6A9
:10094000E1794FF6FC7AC2F2000BA7F5816405E06D
:1009500015F00E0F0AEA450500F08480306800EAC1
:10096000090028433060386810F0E00FF0D0386894
:10097000316800F0E00001F01E010844ABF800000F
:1009800020464FF4007100F0EDF96420FFF7ACFC55
:1009900020464FF4007100F0E3F96420FFF7A4FC57
:1009A000D6E741F60C0140F29000C4F20101C2F218
:1009B00000000A6800884FF6E1731A4000F01E0339
:1009C0001A440A6041F60801C4F2010109680140B5
:1009D00011F0E00F48D040F200020021C2F2000204
:1009E00012F8113098424AD001310C29F8D1022076
:1009F00059E041F60C0040F29003C4F20100C2F24B
:100A0000000301681B884FF6E172114003F01E02DB
:100A10001144016041F60800C4F20100006818406A
:100A200010F0E00F22D001B0BDE8F08F41F60C00CD
:100A300040F29003C4F20100C2F2000301681B8877
:100A40004FF6E172114003F01E021144016041F6BD
:100A50000800C4F201000068184010F0E00F07D051
:100A6000022020E001201EE000201CE003201AE00C
:100A700040F29201C2F200010020087013E002EB84
:100A80004100407840F29601C2F20001088040F235
:100A90009200C2F200000121017040F29300C2F204
:100AA00000000170022088F8000001B0BDE8F08F5E
:100AB0004EF68850CEF20000026841F2000142F486
:100AC0007002C4F2020102600A6842F001020A6088
:100AD0000A689207FCD54A6822F003024A6000BF08
:100AE0004A6812F00C0FFBD10A684FF6FF73CFF67D
:100AF000F2631A400A6000224A600A634FF41F0240
:100B00008A604FF0006140F8801C7047FEE70000EB
:100B100041F20401C4F202010A6800F00F0022F061
:100B2000F00242EA001008607047000041F2040140
:100B3000C4F202010A6800F0070022F4E06242EA0F
:100B4000002008607047000041F20401C4F2020175
:100B50000A6800F0070022F4605242EAC0200860F0
:100B60007047000041F25401C4F202010A680128F2
:100B700022F0300208BF30320A607047042888BF74
:100B80007047DFE800F0030C19262F0041F2000047
:100B9000C4F20200026861F300020260704741F291
:100BA0000000C4F20200026801F0010122F4803268
:100BB00042EA01410160704741F20000C4F20200C4
:100BC000026801F0010122F0807242EA01610160D5
:100BD000704741F20000C4F20200026A61F30002B1
:100BE0000262704741F20000C4F20200426A61F3FF
:100BF000000242627047000041F20002010CC4F2A0
:100C00000202895800F01F0021FA00F000F00100F4
:100C10007047000041F200010020C4F2020100BF51
:100C20000A68920304D4B0F5405F00F10100F7D3E5
:100C30000868C0F34040704741F2000200F01F0313
:100C40004FF0010CC4F2020201290CFA03F14FEA41
:100C50001040835814BF23EA0101194381507047A3
:100C600080B541F2040EC4F2020EDEF800C070B18D
:100C70004CF48033CEF80030DEF800C0012814BFF9
:100C80004CF400302CF40030CEF8000009E02CF4D5
:100C90008030CEF80000DEF82C0040F00070CEF876
:100CA0002C00DEF8000061F39540CEF80000DEF87D
:100CB0000000090961F35E70CEF80000DEF8000064
:100CC00020F0004040EAC270CEF8000080BD000075
:100CD00041F20000C4F20200016841F0010101602C
:100CE00001688907FCD5416821F00301416000BF1C
:100CF000416811F00C0FFBD101684FF6FF72CFF67F
:100D0000F262114001600021416001634FF41F0154
:100D10008160704741F20401C4F202010A6860F385
:100D200001020A6000BF00BF00BF00BF00BF00BFDC
:100D300000BF00BF00BF00BF00BF00BF00BF00BFBB
:100D400000BF00BF00BF00BF00BF00BF7047000072
:100D500041F20400C4F202000068C0F38100704751
:100D6000416170470161704740F200424FF6FF71E8
:100D7000C0F20012C0E9001270470000B0B58B79D4
:100D80000A88032B0BD07BB94979282901F00F0E73
:100D900018D0182908BF0261110616D12EE04FF0B5
:100DA000000E110611D129E003F0080C0B79C97966
:100DB00003F00403634401F0030103EB010E110689
:100DC00003D11BE04261110618D000234FF00F0C35
:100DD000002104E00131082903F104030ED022FAB6
:100DE00001F4E407F6D004680CFA03F5AC430460A0
:100DF00004680EFA03F52C430460EBE7B2F5807F3C
:100E000038BFB0BD120A00234FF00F0C002104E0E0
:100E10000131082903F104030ED022FA01F4E4079A
:100E2000F6D044680CFA03F5AC43446044680EFA0B
:100E300003F52C434460EBE7B0BD0000B0B5C0F350
:100E4000074353FA90F2C2F120024FF0FF3E2EFA10
:100E500002F40EFA03F240F2000E4FEA106CC4F2F4
:100E6000010E5CF80E50224025EA0202C0B2984002
:100E7000002918BF02434CF80E20B0BD00F04CF919
:100E800000F02CF900F0E8F800F024F900F08EF9F9
:100E900000F0EAF8FFF782FAFFF738FA40F218009C
:100EA000C2F20000FFF7BCFC002001210024FFF784
:100EB00057FC41F60C00C4F2010001684FF6E172E4
:100EC0001140016040F29400C2F20000047040F250
:100ED0009000C2F20000048040F2960540F29200B9
:100EE00040F29306C2F20005C2F20000C2F2000610
:100EF0002C800470347000BFFFF7FEFC30780028AF
:100F00001ABF287834700020C0B2FFF703FCF3E763
:100F10004EF60C51CEF200010A684FF6FF031A405C
:100F200060F30A2242F0806040F0FD700860704774
:100F3000B0B541F2040441F20025C4F20204C0F24B
:100F40007A05FFF705FF02280BD0A0BB206D8005B6
:100F500031D5E06A800144BF46F60045C0F2DC2589
:100F600029E0D4F800C021682268C1F38341C2F3AC
:100F700041721301581C0F29034618BF0223002A8F
:100F800018BF03465FEACC3003EB010006D440F6FD
:100F90000011C0F23D0100FB01F50CE0216889035E
:100FA00001D4454307E0216DC1F301310231B5FBA6
:100FB000F1F101FB00F540F22800C2F200000560EB
:100FC000216804A2C1F30311515C026822FA01F105
:100FD0000160B0BD00000000000000000102030439
:100FE00006070809C1628262416941F0010141615D
:100FF00070470000026801F0070122F0700242EA27
:101000000111016070470000026861F30002026094
:1010100070470000406A704741627047026801F003
:10102000010122F0020242EA410101607047000022
:10103000026801F0010122F0800242EAC111016060
:1010400070470000426801F0070122F0700242EA96
:10105000011141607047000040F20230C3F21000FD
:101060000121FFF7EBBE00002DE9F04383B001AC96
:101070002046FFF779FEE02041F6000501900420AC
:10108000C4F20105ADF8090028462146FFF776FEB7
:1010900028461E214FF01E09FFF762FEA5F5806667
:1010A00030464FF47E714FF47E78FFF759FE40F2E0
:1010B0000047C0F2102728462146CDE90197FFF7E7
:1010C0005DFE30462146CDE90187FFF757FE03B0AC
:1010D000BDE8F0830320FFF71BBF000010B54FF4FD
:1010E000C0100121FFF7A8FD0224C0F21804204619
:1010F0000121FFF7A1FDE01C0121FFF79DFD201D4F
:101100000121FFF799FD0520C0F21C000121BDE877
:101110001040FFF791BD000010B5FFF7D9FD042086
:101120000121FFF72BFD0124C0F224042046FFF724
:1011300063FD0128FAD101200121FFF71FFD00BF47
:10114000FFF768FD0028FBD000200121FFF716FD06
:101150000120FFF751FD0128FAD101201D210122B4
:10116000FFF77EFD02200121FFF708FD1920FFF7A0
:1011700043FD0128FAD10020FFF7CAFC0420FFF745
:10118000E3FC0620FFF7D2FC0120FFF7EBFC022076
:10119000FFF7C0FDFFF7DCFD0228FBD10020FFF7C1
:1011A000E1FCBDE81040FFF7C3BE000010B541F2FE
:1011B0000044C4F2000420464FF6E8514EF6602287
:1011C000FFF710FF20460021FFF714FF2046002103
:1011D000FFF72EFF20460021FFF734FF20460121B4
:1011E000FFF71CFF20460121BDE81040FFF70CBFB0
:1011F000F1EE100A4FF6FF71C0F2C03120EA010093
:1012000040F04070E1EE100A704700003012000814
:101210000000002030000000C0010008601200083B
:101220003000002068060000DC010008000000001B
:1012300022314232823324344435843628374838C8
:101240008839302E50309023456E74657220766157
:101250006C75653A0000000000127A000000000082
:040000050800018569
:00000001FF
