:020000040800F2
:10000000A80600202502000825060008A503000810
:100010002106000805030008AD07000800000000E5
:100020000000000000000000000000002906000899
:100030001503000800000000270600083D02000824
:100040003F0200083F0200083F0200083F0200088C
:100050003F0200083F0200083F0200083F0200087C
:100060003F0200083F0200083F0200083F0200086C
:100070003F0200083F0200083F0200083F0200085C
:100080003F0200083F0200083F0200083F0200084C
:100090003F0200083F0200083F0200083F0200083C
:1000A0003F0200083F0200083F0200083F0200082C
:1000B0003F0200083F0200083F0200083F0200081C
:1000C0003F0200083F0200083F0200083F0200080C
:1000D0003F0200083F0200083F0200083F020008FC
:1000E0003F0200083F0200083F0200083F020008EC
:1000F0003F0200083F0200083F0200083F020008DC
:100100003F0200083F0200083F0200083F020008CB
:100110003F0200083F0200083F0200083F020008BB
:100120003F0200083F0200083F0200083F020008AB
:100130003F0200083F0200083F0200083F0200089B
:1001400000000000000000000000000000000000AF
:100150003F0200083F0200083F0200083F0200087B
:100160003F0200083F0200083F0200083F0200086B
:100170003F0200083F0200083F0200083F0200085B
:100180003F02000800F002F800F03CF80AA090E8F6
:10019000000C82448344AAF10107DA4501D100F042
:1001A00031F8AFF2090EBAE80F0013F0010F18BFD3
:1001B000FB1A43F0010318472C0D00004C0D000002
:1001C000103A24BF78C878C1FAD8520724BF30C883
:1001D00030C144BF04680C60704700000023002455
:1001E00000250026103A28BF78C1FBD8520728BF47
:1001F00030C148BF0B6070471FB500F065FE1FBDE2
:1002000010B510BD00F031F81146FFF7F5FF00F012
:10021000A5FC00F04FF803B4FFF7F2FF03BC00F0B9
:1002200057F800000948804709480047FEE7FEE705
:10023000FEE7FEE7FEE7FEE7FEE7FEE7FEE7FEE796
:1002400004480549054A064B704700003D07000871
:1002500085010008A8000020A8060020A8020020B0
:10026000A8020020704770477047754600F02CF8D0
:10027000AE4605006946534620F00700854618B093
:1002800020B5FFF7DDFFBDE820404FF000064FF03E
:1002900000074FF000084FF0000B21F00701AC46BB
:1002A000ACE8C009ACE8C009ACE8C009ACE8C009DA
:1002B0008D46704710B50446AFF300802046BDE878
:1002C0001040FFF7A8BF000000487047440000201E
:1002D00001491820ABBEFEE726000200704700006F
:1002E00010B50748006840F01E00054908600A2064
:1002F00000F012F80248001F006800F0E00010BD96
:100300000C18014000BFFEE700200149087070474B
:10031000260000207047000010B504460021054863
:1003200000F0E5FC00BF034800F0DEFCA042FAD379
:1003300010BD000000140040002114E00C4810F82B
:1003400011000C4A128890420BD1094800EB410081
:100350004078094A10800120084A1070084A10703D
:100360007047481CC1B20C29E8DB0020F8E7000008
:100370002800002022000020240000202600002069
:10038000270000200548007828B1002003490870A4
:100390000348007870470020FCE700002700002099
:1003A0002400002000BFFEE7094800684FF6E17115
:1003B000084007490860002006490870064908807F
:1003C0000649088006490870064908707047000011
:1003D0000C180140200000202200002024000020F2
:1003E000260000202700002010B5012000F004F8AE
:1003F0000220FFF791FF10BD10B5044610211048F0
:1004000000F022FB00F018FB201100F0D1F80821C9
:100410000B4800F01BFB00F00FFB0821084800F020
:1004200013FB204600F0C4F80821054800F00EFB3D
:1004300000F002FB0821024800F006FB10BD00009E
:100440000014014010B504461021104800F0FEFAD7
:1004500000F0F2FA201100F0ABF808210B4800F090
:10046000F5FA00F0E9FA0821084800F0EDFA204614
:1004700000F09EF80821054800F0E8FA00F0DCFAE8
:100480000821024800F0E0FA10BD0000001401400D
:1004900010B52820FFF740FF10212A4800F0D4FAB9
:1004A00000F0CAFA032000F083F80821254800F084
:1004B000CDFA00F0C1FA0821224800F0C5FA012067
:1004C000FFF72AFF032000F073F808211D4800F011
:1004D000BDFA00F0B1FA08211A4800F0B5FA01207F
:1004E000FFF71AFF032000F063F80821154800F019
:1004F000ADFA00F0A1FA0821124800F0A5FA012097
:10050000FFF70AFF2820FFF777FF0220FFF704FF1D
:100510000F20FFF771FF0220FFF7FEFE0120FFF71B
:100520006BFF0220FFF7F8FE0620FFF765FF0220B1
:10053000FFF7F2FE0220FFF75FFF0220FFF7ECFE5D
:1005400010BD00000014014010B5044624B120463F
:10055000FFF778FF00F070FA10BD70B504460D4645
:1005600015B1012D13D107E044F08000FFF744FFDF
:100570000120FFF7D1FE0AE004F14001C9B241F0C9
:100580008000FFF739FF0120FFF7C6FE00BF00BF64
:1005900070BD70B50446002506E0605DFFF752FFB0
:1005A00000F04AFA681CC5B2605D0028F5D170BD44
:1005B00010B50446C4F3C00028B14FF48071174849
:1005C00000F044FA04E04FF48071144800F03CFA63
:1005D000C4F3800020B18021104800F037FA03E016
:1005E00080210E4800F030FAC4F3400020B14021D1
:1005F0000A4800F02BFA03E04021084800F024FAF2
:1006000004F0010020B12021044800F01FFA03E0AB
:100610002021024800F018FA10BD0000001401402B
:1006200000BFFEE7704770477047000010B50C48E8
:1006300000684FF6E17108400A49097801F01E018F
:100640000843074908600A20FFF766FE0448001FB8
:10065000006804490978084000F0E00010BD00007F
:100660000C1801402200002010B5022423E0144899
:1006700000684FF6E17108402043114908600A20E4
:10068000FFF74AFE0E48001F006800F0E00070B15E
:100690000B48001F006800F0E0000A490880084885
:1006A000006800F01E0009880843064908804FF6DC
:1006B000FF7000EA440404F01E000028D7D110BDEA
:1006C0000C1801402200002010B51B48007830B102
:1006D00001280DD0022818D003282AD11CE0FFF7EA
:1006E000FFFD20B1FFF7C0FF01201349087021E092
:1006F000FFF79CFF28B1FFF71FFE02200E4908708C
:1007000002E000200C49087014E0FFF78FFF10B9D9
:100710000320094908700DE0FFF788FF18B1022097
:100720000549087004E0FFF7EFFD0020024908705A
:1007300000E000BF00BF10BD200000201848006886
:1007400040F47000164908601648006820F0010067
:10075000401C1449086000BF12480068C0F3400004
:100760000028F9D00F48406820F003000D49486088
:1007700000BF0C484068C0F381000028F9D1094847
:10078000006809490840074908600020486008637C
:100790004FF41F008860C803014980390860704722
:1007A00088ED00E000100240FFFFF2FE00BFFEE710
:1007B0000349496860F30711014A5160704700001E
:1007C000001002400349496860F30A21014A516060
:1007D00070470000001002400349496860F3CD21D2
:1007E000014A51607047000000100240012807D103
:1007F0000749496D21F030013031054A516505E066
:100800000349496D21F03001014A516570470000EC
:1008100000100240052827D2DFE800F0030A111873
:100820001F00134A126861F30002114B1A601CE0AA
:100830000F4A126861F310420D4B1A6015E00C4A22
:10084000126861F318620A4B1A600EE0084A126AD5
:1008500061F30002064B1A6207E0054A526A61F32F
:100860000002034B5A6200E000BF00BF7047000067
:100870000010024010B501460020094B03EB114265
:10088000126801F01F040123A3401A4001F01F0465
:100890000123A3409A4200D000E0012010BD0000D7
:1008A0000010024030B50024002500E0641C112037
:1008B000FFF7E0FF012802D0B4F5405FF6D3112026
:1008C000FFF7D8FF012801D0002500E001252846C8
:1008D00030BD000010B501290DD10E4B03EB1042C5
:1008E000126800F01F040123A3401A43094C04EBD3
:1008F00010431A600CE0074B03EB1042126800F043
:100900001F040123A3409A43024C04EB10431A60D6
:1009100010BD00000010024010B568B91C4B5B68A8
:1009200023F480331A4C636023461B6B23F000735F
:1009300003F10073236317E0154B5B6823F48033E6
:1009400003F58033124C6360012805D123465B68B0
:1009500023F40033636007E00D4B5B6823F400333E
:1009600003F500330A4C6360094B5B6861F3954300
:10097000074C63600C09064B5B6864F35E73044CC0
:10098000636023465B6862F3DF73636010BD000041
:10099000001002401348006820F00100401C11497B
:1009A000086000BF0F480068C0F340000028F9D07D
:1009B0000C48406820F003000A49486000BF09481D
:1009C0004068C0F381000028F9D106480068064954
:1009D0000840044908600020486008634FF41F0085
:1009E0008860704700100240FFFFF2FE0D49496821
:1009F00060F301010B4A516000BF00BF00BF00BFA0
:100A000000BF00BF00BF00BF00BF00BF00BF00BFEE
:100A100000BF00BF00BF00BF00BF00BF00BF00BFDE
:100A2000704700000010024002484068C0F3810097
:100A30007047000000100240002001E0411C88B215
:100A4000B0F57A7FFADB704741617047016170470A
:100A50004FF6FF7101600021817101710421417124
:100A60000121C1717047F0B50A461588ABB295797E
:100A7000032D01D100241AE0957965B9557905F067
:100A80000F045579182D01D1036110E05579282DF7
:100A90000DD143610BE0957905F00805167906F054
:100AA00004063543D67906F0030645EA0604DDB2AE
:100AB000A5B1002110E001258D401D405DB1056804
:100AC0008F000F26BE40B543056005688E0004FA0E
:100AD00006F635430560491C0829ECD3FF2B15DDCC
:100AE0001B12002110E001258D401D405DB14568BD
:100AF0008F000F26BE40B543456045688E0004FA5E
:100B000006F635434560491C0829ECD3F0BD0000CA
:100B1000F0B50C46104F07EB1062C0F30741C0F36D
:100B20000725C6B2C5F12007A7EB010C4FF0FF3730
:100B300007FA0CF3C5F120077F1AFB40CB408B402E
:100B400017689F4317602CB106FA01FC176847EA43
:100B50000C071760F0BD00000000014000F048F9EC
:100B600000F028F900F0D4F800F01EF900F08CF93C
:100B700000F0D6F8FFF78CFCFFF736FC0848FFF7CB
:100B800008FD01210020FFF7E8FCFFF70DFC06E05F
:100B9000FFF79AFDFFF7F6FB0446FFF7D5FCF7E7F2
:100BA0000000002000BF00F00702064B19684FF656
:100BB000FF031940044B0B4343EA0221014B196028
:100BC00000BF70470CED00E00000FA052DE9F0478A
:100BD0000026002400250027A046A146FFF724FF99
:100BE0008246BAF1000F06D0BAF1010F15D0BAF162
:100BF000020F46D115E02D48406DC0F3402040B1B2
:100C00002A48006BC0F3406018B1294829490860A0
:100C100002E029482749086037E02748254908604D
:100C200033E022484068C0F3004720484068C0F3E2
:100C300083441E484068C0F341750DB90F2C03D1A1
:100C40002801401C044400E0A41C27B91B48604351
:100C50001849086014E015484068C0F3404058B196
:100C60001248406DC0F30136B01C1349B1FBF0F0DF
:100C700060431049086003E00F4860430D49086075
:100C800003E00D480B49086000BF00BF07484068FB
:100C9000C0F303180A4810F808900648006820FAC4
:100CA00009F004490860BDE8F08700000010024028
:100CB000006CDC024000002000127A0000093D00B8
:100CC000D20E0008C1628262436923F001035B1CFB
:100CD00043617047026861F3061202607047026860
:100CE00061F30002026070470146486A7047416242
:100CF0007047026861F3410202607047026861F365
:100D0000C71202607047426861F306124260704782
:100D100010B501210148FFF7FBFE10BD02031030A2
:100D20001CB56846FFF794FE00208DF80600E02011
:100D3000009004208DF8050069461948FFF793FEDE
:100D40001E211748FFF780FE4FF47E711548FFF70C
:100D50007BFE02208DF8070000208DF80400102093
:100D60008DF806001E20009004208DF805006946CD
:100D70000B48FFF778FE02208DF8070000208DF861
:100D8000040010208DF806004FF47E7000900420BF
:100D90008DF8050069460348FFF765FE1CBD00009D
:100DA000001801400014014010B50320FFF7FAFEBF
:100DB00010BD000010B501214FF4C010FFF78AFDEF
:100DC00001210948FFF786FD01210748C01CFFF7F4
:100DD00081FD01210448001DFFF77CFD012103482E
:100DE000FFF778FD10BD00000200180005001C0090
:100DF00010B5FFF7CFFD01210420FFF70BFD00BF69
:100E00002048FFF737FD0128FAD101210846FFF7F6
:100E100001FD00BFFFF746FD0028FBD001210020A7
:100E2000FFF7F8FC00BF0120FFF724FD0128FAD1ED
:100E300001221D211046FFF76FFD01210220FFF75F
:100E4000E9FC00BF1920FFF715FD0128FAD10020A9
:100E5000FFF7AEFC0420FFF7BFFC0620FFF7B2FC53
:100E60000120FFF7C3FC0220FFF7C0FD00BFFFF722
:100E7000DBFD0228FBD10020FFF7B8FCFFF7A6FE40
:100E800010BD00000100240010B54EF660224FF6A0
:100E9000E8510C48FFF716FF00210A48FFF71AFF38
:100EA00000210848FFF72AFF00210648FFF72BFF23
:100EB00001210448FFF71DFF01210248FFF70FFF42
:100EC00010BD0000001400404FF04070E1EE100A29
:100ED0007047000000000000000001020304060744
:100EE00008090000040F0008000000204400000072
:100EF000C0010008480F00084400002064060000FC
:100F0000DC010008456E7465722076616C75653A87
:100F1000000000004E6F7468696E670000000000FA
:100F200000000000000000000000000022314232FA
:100F30008233243444358436283748388839302E73
:080F40005030902300127A00EA
:040000050800018569
:00000001FF
