:020000040800F2
:10000000A8060020250200081D0600089D03000820
:1000100019060008FD0200088D0700080000000016
:1000200000000000000000000000000021060008A1
:100030000D030008000000001F0600083D02000834
:100040003F0200083F0200083F0200083F0200088C
:100050003F0200083F0200083F0200083F0200087C
:100060003F0200083F0200083F0200083F0200086C
:100070003F0200083F0200083F0200083F0200085C
:100080003F0200083F0200083F0200083F0200084C
:100090003F0200083F0200083F0200083F0200083C
:1000A0003F0200083F0200083F0200083F0200082C
:1000B0003F0200083F0200083F0200083F0200081C
:1000C0003F0200083F0200083F0200083F0200080C
:1000D0003F0200083F0200083F0200083F020008FC
:1000E0003F0200083F0200083F0200083F020008EC
:1000F0003F0200083F0200083F0200083F020008DC
:100100003F0200083F0200083F0200083F020008CB
:100110003F0200083F0200083F0200083F020008BB
:100120003F0200083F0200083F0200083F020008AB
:100130003F0200083F0200083F0200083F0200089B
:1001400000000000000000000000000000000000AF
:100150003F0200083F0200083F0200083F0200087B
:100160003F0200083F0200083F0200083F0200086B
:100170003F0200083F0200083F0200083F0200085B
:100180003F02000800F002F800F03CF80AA090E8F6
:10019000000C82448344AAF10107DA4501D100F042
:1001A00031F8AFF2090EBAE80F0013F0010F18BFD3
:1001B000FB1A43F0010318470C0D00002C0D000042
:1001C000103A24BF78C878C1FAD8520724BF30C883
:1001D00030C144BF04680C60704700000023002455
:1001E00000250026103A28BF78C1FBD8520728BF47
:1001F00030C148BF0B6070471FB500F055FE1FBDF2
:1002000010B510BD00F031F81146FFF7F5FF00F012
:1002100095FC00F04FF803B4FFF7F2FF03BC00F0C9
:1002200057F800000948804709480047FEE7FEE705
:10023000FEE7FEE7FEE7FEE7FEE7FEE7FEE7FEE796
:1002400004480549054A064B704700001D07000891
:1002500085010008A8000020A8060020A8020020B0
:10026000A8020020704770477047754600F02CF8D0
:10027000AE4605006946534620F00700854618B093
:1002800020B5FFF7DDFFBDE820404FF000064FF03E
:1002900000074FF000084FF0000B21F00701AC46BB
:1002A000ACE8C009ACE8C009ACE8C009ACE8C009DA
:1002B0008D46704710B50446AFF300802046BDE878
:1002C0001040FFF7A8BF000000487047440000201E
:1002D00001491820ABBEFEE726000200704700006F
:1002E0000548006840F01E0003490860081F0068C8
:1002F00000F0E000704700000C18014000BFFEE76E
:100300000020014908707047060000207047000077
:1003100010B504460021054800F0D9FC00BF034891
:1003200000F0D2FCA042FAD310BD0000001400403F
:10033000002114E00C4810F811000C4A1288904279
:100340000BD1094800EB41004078094A1080012098
:10035000084A1070084A10707047481CC1B20C2936
:10036000E8DB0020F8E70000080000200200002081
:100370000400002006000020070000200548007847
:1003800028B1002003490870034800787047002016
:10039000FCE70000070000200400002000BFFEE78B
:1003A000094800684FF6E1710840074908600020DD
:1003B0000649087006490880064908800649087001
:1003C00006490870704700000C180140000000202A
:1003D000020000200400002006000020070000208A
:1003E00010B5012000F004F80220FFF791FF10BDC6
:1003F00010B504461021104800F016FB00F00CFB6D
:10040000201100F0D1F808210B4800F00FFB00F09C
:1004100003FB0821084800F007FB204600F0C4F861
:100420000821054800F002FB00F0F6FA0821024816
:1004300000F0FAFA10BD00000014014010B50446A7
:100440001021104800F0F2FA00F0E6FA201100F056
:10045000ABF808210B4800F0E9FA00F0DDFA0821BA
:10046000084800F0E1FA204600F09EF8082105480F
:1004700000F0DCFA00F0D0FA0821024800F0D4FACB
:1004800010BD00000014014010B52820FFF740FF08
:1004900010212A4800F0C8FA00F0BEFA032000F04C
:1004A00083F80821254800F0C1FA00F0B5FA0821C8
:1004B000224800F0B9FA0120FFF72AFF032000F0DC
:1004C00073F808211D4800F0B1FA00F0A5FA0821E0
:1004D0001A4800F0A9FA0120FFF71AFF032000F0E4
:1004E00063F80821154800F0A1FA00F095FA0821F8
:1004F000124800F099FA0120FFF70AFF2820FFF7C1
:1005000077FF0220FFF704FF0F20FFF771FF0220A3
:10051000FFF7FEFE0120FFF76BFF0220FFF7F8FE5A
:100520000620FFF765FF0220FFF7F2FE0220FFF72B
:100530005FFF0220FFF7ECFE10BD00000014014039
:1005400010B5044624B12046FFF778FF00F064FAA6
:1005500010BD70B504460D4615B1012D13D107E04D
:1005600044F08000FFF744FF0120FFF7D1FE0AE0CE
:1005700004F14001C9B241F08000FFF739FF0120CA
:10058000FFF7C6FE00BF00BF70BD70B50446002572
:1005900006E0605DFFF752FF00F03EFA681CC5B24E
:1005A000605D0028F5D170BD10B50446C4F3C000ED
:1005B00028B14FF48071174800F038FA04E04FF486
:1005C0008071144800F030FAC4F3800020B180211B
:1005D000104800F02BFA03E080210E4800F024FAC6
:1005E000C4F3400020B140210A4800F01FFA03E0A4
:1005F0004021084800F018FA04F0010020B1202141
:10060000044800F013FA03E02021024800F00CFA3D
:1006100010BD00000014014000BFFEE770477047A6
:1006200070470000094800684FF6E171084008492A
:10063000097801F01E01084304490860081F00689A
:1006400003490978084000F0E00070470C180140A9
:100650000200002002201EE0114909684FF6E172F5
:10066000114001430E4A1160111F096801F0E001B9
:1006700069B1111F096801F0E0010A4A11800849B7
:10068000096801F01E0112881143064A11804FF6D5
:10069000FF7101EA400000F01E010029DCD1704723
:1006A0000C1801400200002000B51B48007830B152
:1006B00001280DD0022818D003282AD11CE0FFF70A
:1006C0000FFE20B1FFF7C6FF01201349087021E09B
:1006D000FFF7A8FF28B1FFF72BFE02200E49087094
:1006E00002E000200C49087014E0FFF79BFF10B9EE
:1006F0000320094908700DE0FFF794FF18B10220AC
:100700000549087004E0FFF7FBFD0020024908706E
:1007100000E000BF00BF00BD0000002018480068D6
:1007200040F47000164908601648006820F0010087
:10073000401C1449086000BF12480068C0F3400024
:100740000028F9D00F48406820F003000D494860A8
:1007500000BF0C484068C0F381000028F9D1094867
:10076000006809490840074908600020486008639C
:100770004FF41F008860C803014980390860704742
:1007800088ED00E000100240FFFFF2FE00BFFEE730
:100790000349496860F30711014A5160704700003E
:1007A000001002400349496860F30A21014A516080
:1007B00070470000001002400349496860F3CD21F2
:1007C000014A51607047000000100240012807D123
:1007D0000749496D21F030013031054A516505E086
:1007E0000349496D21F03001014A5165704700000D
:1007F00000100240052827D2DFE800F0030A111894
:100800001F00134A126861F30002114B1A601CE0CA
:100810000F4A126861F310420D4B1A6015E00C4A42
:10082000126861F318620A4B1A600EE0084A126AF5
:1008300061F30002064B1A6207E0054A526A61F34F
:100840000002034B5A6200E000BF00BF7047000087
:100850000010024010B501460020094B03EB114285
:10086000126801F01F040123A3401A4001F01F0485
:100870000123A3409A4200D000E0012010BD0000F7
:100880000010024030B50024002500E0641C112057
:10089000FFF7E0FF012802D0B4F5405FF6D3112046
:1008A000FFF7D8FF012801D0002500E001252846E8
:1008B00030BD000010B501290DD10E4B03EB1042E5
:1008C000126800F01F040123A3401A43094C04EBF3
:1008D00010431A600CE0074B03EB1042126800F063
:1008E0001F040123A3409A43024C04EB10431A60F7
:1008F00010BD00000010024010B568B91C4B5B68C9
:1009000023F480331A4C636023461B6B23F000737F
:1009100003F10073236317E0154B5B6823F4803306
:1009200003F58033124C6360012805D123465B68D0
:1009300023F40033636007E00D4B5B6823F400335E
:1009400003F500330A4C6360094B5B6861F3954320
:10095000074C63600C09064B5B6864F35E73044CE0
:10096000636023465B6862F3DF73636010BD000061
:10097000001002401348006820F00100401C11499B
:10098000086000BF0F480068C0F340000028F9D09D
:100990000C48406820F003000A49486000BF09483D
:1009A0004068C0F381000028F9D106480068064974
:1009B0000840044908600020486008634FF41F00A5
:1009C0008860704700100240FFFFF2FE0D49496841
:1009D00060F301010B4A516000BF00BF00BF00BFC0
:1009E00000BF00BF00BF00BF00BF00BF00BF00BF0F
:1009F00000BF00BF00BF00BF00BF00BF00BF00BFFF
:100A0000704700000010024002484068C0F38100B7
:100A10007047000000100240002001E0411C88B235
:100A2000B0F57A7FFADB704741617047016170472A
:100A30004FF6FF7101600021817101710421417144
:100A40000121C1717047F0B50A461588ABB295799E
:100A5000032D01D100241AE0957965B9557905F087
:100A60000F045579182D01D1036110E05579282D17
:100A70000DD143610BE0957905F00805167906F074
:100A800004063543D67906F0030645EA0604DDB2CE
:100A9000A5B1002110E001258D401D405DB1056824
:100AA0008F000F26BE40B543056005688E0004FA2E
:100AB00006F635430560491C0829ECD3FF2B15DDEC
:100AC0001B12002110E001258D401D405DB14568DD
:100AD0008F000F26BE40B543456045688E0004FA7E
:100AE00006F635434560491C0829ECD3F0BD0000EB
:100AF000F0B50C46104F07EB1062C0F30741C0F38E
:100B00000725C6B2C5F12007A7EB010C4FF0FF3750
:100B100007FA0CF3C5F120077F1AFB40CB408B404E
:100B200017689F4317602CB106FA01FC176847EA63
:100B30000C071760F0BD00000000014000F048F90C
:100B400000F028F900F0D4F800F01EF900F08CF95C
:100B500000F0D6F8FFF798FCFFF742FC0848FFF7D3
:100B600014FD01210020FFF7F4FCFFF719FC06E05B
:100B7000FFF79AFDFFF702FC0446FFF7E1FCF7E7F9
:100B80002000002000BF00F00702064B19684FF656
:100B9000FF031940044B0B4343EA0221014B196048
:100BA00000BF70470CED00E00000FA052DE9F047AA
:100BB0000026002400250027A046A146FFF724FFB9
:100BC0008246BAF1000F06D0BAF1010F15D0BAF182
:100BD000020F46D115E02D48406DC0F3402040B1D2
:100BE0002A48006BC0F3406018B1294829490860C1
:100BF00002E029482749086037E02748254908606E
:100C000033E022484068C0F3004720484068C0F302
:100C100083441E484068C0F341750DB90F2C03D1C1
:100C20002801401C044400E0A41C27B91B48604371
:100C30001849086014E015484068C0F3404058B1B6
:100C40001248406DC0F30136B01C1349B1FBF0F0FF
:100C500060431049086003E00F4860430D49086095
:100C600003E00D480B49086000BF00BF074840681B
:100C7000C0F303180A4810F808900648006820FAE4
:100C800009F004490860BDE8F08700000010024048
:100C9000006CDC024000002000127A0000093D00D8
:100CA000B20E0008C1628262436923F001035B1C3B
:100CB00043617047026861F3061202607047026880
:100CC00061F30002026070470146486A7047416262
:100CD0007047026861F3410202607047026861F385
:100CE000C71202607047426861F3061242607047A3
:100CF00010B501210148FFF7FBFE10BD02031030C3
:100D00001CB56846FFF794FE00208DF80600E02031
:100D1000009004208DF8050069461948FFF793FEFE
:100D20001E211748FFF780FE4FF47E711548FFF72C
:100D30007BFE02208DF8070000208DF804001020B3
:100D40008DF806001E20009004208DF805006946ED
:100D50000B48FFF778FE02208DF8070000208DF881
:100D6000040010208DF806004FF47E7000900420DF
:100D70008DF8050069460348FFF765FE1CBD0000BD
:100D8000001801400014014010B50320FFF7FAFEDF
:100D900010BD000010B501214FF4C010FFF78AFD0F
:100DA00001210948FFF786FD01210748C01CFFF714
:100DB00081FD01210448001DFFF77CFD012103484E
:100DC000FFF778FD10BD00000200180005001C00B0
:100DD00010B5FFF7CFFD01210420FFF70BFD00BF89
:100DE0002048FFF737FD0128FAD101210846FFF717
:100DF00001FD00BFFFF746FD0028FBD001210020C8
:100E0000FFF7F8FC00BF0120FFF724FD0128FAD10D
:100E100001221D211046FFF76FFD01210220FFF77F
:100E2000E9FC00BF1920FFF715FD0128FAD10020C9
:100E3000FFF7AEFC0420FFF7BFFC0620FFF7B2FC73
:100E40000120FFF7C3FC0220FFF7C0FD00BFFFF742
:100E5000DBFD0228FBD10020FFF7B8FCFFF7A6FE60
:100E600010BD00000100240010B54EF660224FF6C0
:100E7000E8510C48FFF716FF00210A48FFF71AFF58
:100E800000210848FFF72AFF00210648FFF72BFF43
:100E900001210448FFF71DFF01210248FFF70FFF62
:100EA00010BD0000001400404FF04070E1EE100A49
:100EB0007047000000000000000001020304060764
:100EC00008090000E40E00080000002044000000B3
:100ED000C0010008280F000844000020640600003C
:100EE000DC01000800000000000000002231423256
:100EF0008233243444358436283748388839302EB4
:100F000050309023456E7465722076616C75653A39
:100F1000000000004E6F7468696E670000000000FA
:080F20000000000000127A003D
:040000050800018569
:00000001FF
